:020000040000FA
:1000000068020010650100006D0100006F01000032
:1000100000000000000000000000000000000000E0
:10002000000000000000000000000000710100005E
:1000300000000000000000007301000075010000D6
:1000400079010000790100007901000079010000C8
:1000500079010000790100007901000079010000B8
:1000600079010000790100007701000077010000AC
:10007000770100007701000079010000790100009C
:100080007901000079010000790100007901000088
:100090007901000079010000790100007901000078
:1000A0007901000079010000790100007901000068
:1000B000770100007701000079010000790100005C
:1000C00000F002F800F03EF80CA030C80838241800
:1000D0002D18A246671EAB4654465D46AC4201D180
:1000E00000F030F87E460F3E0FCCB6460126334274
:1000F00000D0FB1AA246AB4633431847D811000084
:10010000F8110000103A02D378C878C1FAD8520723
:1001100001D330C830C101D504680C6070470000BD
:100120000023002400250026103A01D378C1FBD813
:10013000520700D330C100D50B6070471FB51FBDFB
:1001400010B510BD00F04DF81146FFF7F7FF01F0B4
:100150001DF800F065F803B4FFF7F2FF03BC00F0F0
:100160006BF800000848804708480047FEE7FEE7B4
:10017000FEE7FEE7FEE7FEE7FEE70000044805496C
:10018000034A054B70470000710D0000C1000000DC
:1001900068000010680200106800001001E004C050
:1001A000091F0429FBD28B0701D50280801CC907D7
:1001B00000D00270704700290BD0C30702D0027034
:1001C000401C491E022904D3830702D50280801CEB
:1001D000891EE3E70022EEE70022DFE77047704761
:1001E0007047754600F024F8AE4605006946534650
:1001F000C008C000854618B020B5FFF7BFFF60BC3F
:1002000000274908B6460026C0C5C0C5C0C5C0C540
:10021000C0C5C0C5C0C5C0C5403D49008D4670477A
:1002200010B50446C046C0462046FFF794FF10BDF7
:10023000004870470400001001491820ABBEFEE7DB
:10024000260002007047000010B5044619480068F7
:1002500001210903084317490860002C07D01648FC
:1002600000680121090308431349086008E01248A7
:10027000803000680121090308430F49803108607C
:10028000012000F01BF80C48006801218903084395
:1002900009490860012000F011F807488030006823
:1002A000012189030843044980310860022000F0DD
:1002B00005F810BD002000500022005038B504465B
:1002C0000020009009490A48006800F019F8054626
:1002D00009E00020009002E00098401C0090009887
:1002E000A842F9D3641E002CF3D138BD808D5B0089
:1002F0000000001010B500F0A1FD10BDFFFFFFFFD2
:10030000002203098B422CD3030A8B4211D3002312
:100310009C464EE003460B433CD4002243088B42EC
:1003200031D303098B421CD3030A8B4201D3944679
:100330003FE0C3098B4201D3CB01C01A524183096C
:100340008B4201D38B01C01A524143098B4201D326
:100350004B01C01A524103098B4201D30B01C01A51
:100360005241C3088B4201D3CB00C01A52418308CB
:100370008B4201D38B00C01A524143088B4201D3F8
:100380004B00C01A5241411A00D201465241104658
:1003900070475DE0CA0F00D04942031000D34042CD
:1003A000534000229C4603098B422DD3030A8B4203
:1003B00012D3FC22890112BA030A8B420CD38901A1
:1003C00092118B4208D3890192118B4204D3890187
:1003D0003AD0921100E08909C3098B4201D3CB01C5
:1003E000C01A524183098B4201D38B01C01A52417A
:1003F00043098B4201D34B01C01A524103098B427E
:1004000001D30B01C01A5241C3088B4201D3CB0068
:10041000C01A524183088B4201D38B00C01A52414B
:10042000D9D243088B4201D34B00C01A5241411A22
:1004300000D20146634652415B10104601D3404250
:10044000002B00D54942704763465B1000D3404201
:1004500001B50020C046C04602BD000070B50025B1
:1004600000241B48006801210903884318490860DB
:100470001848006801210903084316490860084626
:100480000068012189030843124908600220FFF730
:1004900015FF07E0641CFA2C04D9012500F0EAF8E6
:1004A000284670BD0C480068012109030840002857
:1004B000F0D10025074880300068890008430549CD
:1004C000803108600220FFF7F9FE2846E9E70000C6
:1004D00000200050002200500021005070B5002480
:1004E00000251F4800680121090388431C49086052
:1004F0001C4800680121890308431A4908606420E8
:10050000FFF7DCFE00BF27E0174800680121090360
:100510000840002805D00720011B012088402843FF
:10052000C5B20220FFF7CAFE0E48803800680121DC
:10053000890308430B49803908600220FFF7BEFE9B
:100540000848006801218903084306490860022021
:10055000FFF7B4FE601CC4B2082CD5DB284670BD82
:1005600000200050802200500021005070B5054648
:100570000024244800680121090308432149086038
:10058000214800680121890308431F4908600220AF
:10059000FFF794FE00BF32E00720011B01208840D6
:1005A0002840002809D01848803800680121090334
:1005B000084315498039086006E0134800680121A6
:1005C00009030843104908600220FFF777FE0E4830
:1005D000803800680121890308430B49803908608D
:1005E0000120FFF76BFE08480068012189030843DA
:1005F000054908600220FFF761FE601CC4B2082CA8
:10060000CADB70BD002000508022005010B5174892
:100610000068012109030843144908601448006870
:1006200001210903084312490860084600680121B6
:10063000890308430E4908600220FFF73FFE0C487B
:1006400080300068012109030843094980310860AE
:100650000220FFF733FE064880300068012189033D
:10066000084303498031086010BD0000002000509D
:100670000022005010B51748006801210903084303
:10068000144908601448006801218903084312498D
:100690000860084600680121090308430E49086004
:1006A0000220FFF70BFE0C48803800680121890307
:1006B00008430949803908600220FFF7FFFD06481A
:1006C0008038006801210903084303498039086024
:1006D00010BD00000020005080220050F8B50746F1
:1006E0000C4616460025FFF791FF9020FFF73EFFCE
:1006F000FFF7B4FE0546002D03D01BA000F05CF907
:10070000F8BD24A000F058F93846FFF72FFFFFF797
:10071000A5FE0546002D03D025A000F04DF9EFE71A
:100720002DA000F049F9FFF771FF9120FFF71EFFA0
:10073000FFF794FE0546002D03D02FA000F03CF9F2
:10074000DEE706E0FFF7CAFE2070641C0020FFF71A
:100750007BFD3046761E0028F4D1FFF78BFF30A0DA
:1007600000F02AF900BFCBE7414453313031342047
:1007700061636B207265616420776F7264206164CD
:100780006472657373206973206661696C65640DBA
:100790000A000000414453313031342072656164F5
:1007A00020206973206F6E6C696E650D0A00000071
:1007B000414453313031342061636B207265616490
:1007C0002020776F726420616464726573732066A1
:1007D00061696C65640D0A00414453313031342045
:1007E000776F7264207265616420616464726573FE
:1007F00073206F6B0D0A00004144533130313420B7
:1008000061636B207265616420776F72642061643C
:100810006472657373206661696C0D0A00000000E4
:10082000414453313031342072656164206F6B0D67
:100830000A000000F8B507460C4616460025FFF7EB
:10084000E5FE9020FFF792FEFFF708FE0546002D1B
:1008500003D017A000F0B0F8F8BD20A000F0ACF86D
:100860003846FFF783FEFFF7F9FD0546002D03D05C
:100870001FA000F0A1F8EFE726A000F09DF80CE023
:100880002078641CFFF772FEFFF7E8FD0546002D97
:1008900003D028A000F090F8DEE73046761E00284E
:1008A000EED1FFF7E7FE2CA000F086F800BFD3E7FB
:1008B000414453313031342077726974652061636B
:1008C0006B20646576696365206164647265737327
:1008D000206661696C65640D0A0000004144533173
:1008E000303134206973206F6E6C696E650D0A00BB
:1008F000414453313031342061636B20776F72642F
:100900002061646472657373206661696C65640D4F
:100910000A0000004144533130313420776F726453
:100920002061646472657373206973206F6B0D0AB4
:1009300000000000414453313031342061636B20AA
:1009400073656E64206461746120697320666169F7
:100950006C65640D0A00000041445331303134208D
:100960007772697465206F6B0D0A000001B5012173
:10097000684600F0B9FA08BD70B505460DA000F054
:100980001BF82806040F092C02DD2146373101E04F
:1009900021463031C8B2FFF7E9FF2C07240F092C9C
:1009A00002DD2146373101E021463031C8B2FFF780
:1009B000DDFF70BD3078000010B5044603E02078FC
:1009C000641CFFF7D3FF20780028F8D110BD000089
:1009D00038B504460020009009490A480068FFF72E
:1009E0008FFC054609E00020009002E00098401CC2
:1009F00000900098A842F9D3641E002CF3D138BDB2
:100A0000808D5B000000001070B5002500241B489D
:100A100000680121090388431849086018480068E4
:100A200001210903084316490860084600680121AE
:100A300089030843124908601420FFF7C9FF07E043
:100A4000641CFA2C04D9012500F04CFB284670BD2B
:100A50000C4800680121090308400028F0D1002556
:100A600007488030006889000843054980310860E4
:100A70001420FFF7ADFF2846E9E7000000200050F2
:100A80000022005000210050F8B507460C461646DB
:100A9000002500F0F3FA402000F0A0FAFFF7B4FFC1
:100AA0000546002D03D017A0FFF786FFF8BD1EA056
:100AB000FFF782FF384600F091FAFFF7A5FF0546E1
:100AC000002D03D01DA0FFF777FFEFE724A0FFF76D
:100AD00073FF0CE02078641C00F080FAFFF794FFAD
:100AE0000546002D03D026A0FFF766FFDEE730465F
:100AF000761E0028EED100F0F5FA2AA0FFF75CFF81
:100B000000BFD3E7504341393535352061636B2051
:100B100064657669636520616464726573732066D9
:100B200061696C65640D0A005043413935353520E3
:100B30006973206F6E6C696E650D0A005043413910
:100B40003535352061636B20776F72642061646492
:100B500072657373206661696C65640D0A0000003C
:100B60005043413935353520776F726420616464B4
:100B700072657373206973206F6B0D0A00000000AB
:100B8000504341393535352061636B2073656E64A0
:100B90002064617461206973206661696C65640D0D
:100BA0000A000000504341393535352077726974A9
:100BB00065206F6B0D0A000010B500245A48406A8A
:100BC000C005000F030000F0DFF910090B0D0F1135
:100BD000131517191B1D1F212325272900241DE08C
:100BE000524C1BE0524C19E0524C17E0524C15E0AD
:100BF000524C13E0524C11E0524C0FE0524C0DE0BD
:100C0000524C0BE0524C09E0524C07E0524C05E0CC
:100C1000524C03E0524C01E0524C00BF00BF42482E
:100C2000406AC006800E811C2046FFF769FB04461F
:100C30003D484030006B8007800F002806D0012817
:100C400008D0022823D0032863D123E0464847492F
:100C500008605EE03448403000688007800F00285C
:100C600006D0012808D002280AD003280DD108E0B8
:100C70003D483E49086008E03B483C49086004E0C4
:100C800000BF00203949086000BF00BF41E037487D
:100C900004603EE02448403000688007800F002850
:100CA00006D0012819D002282CD003282FD12AE001
:100CB0001D488068FF2181310840002803D02A4860
:100CC0002A49086008E018488068C006C00E401C29
:100CD000254948432549086019E013488068FF21E9
:100CE00081310840002803D01F482049086008E0EF
:100CF0000D488068C006C00E401C1B4948431B4974
:100D0000086004E000BF00201849086000BF00BF71
:100D100000BF00BF04484030816B14480068FFF7F3
:100D2000EFFA1249086010BD0080044020A10700BE
:100D300000350C00E0C81000C05C1500006A180007
:100D400040771B0080841E00C0912100009F24007A
:100D500040AC2700E032290020402C00604D2F00DD
:100D600000D4300040E13300001BB7000000001049
:100D700008B500202F4908622F48806B2021884346
:100D80002D4988630020009003E000BF0098401CBC
:100D900000900098C828F8D3012026494031086007
:100DA0004860002048600120486000BF2148403072
:100DB0004068C007C00F0028F8D023201D49886074
:100DC0001D48806B802188431B49886300BF1948F8
:100DD000C068C007C00F0028F9D003201549403172
:100DE000086301204863002048630120486300BF76
:100DF00010484030406BC007C00F0028F8D00120D9
:100E00000C49403188630C48806B091508430A4936
:100E100088630846806B891508430749886305483D
:100E200080300068012109040843024980310860CC
:100E300008BD0000008004400082044010B5152069
:100E400001218140244A116000BF2448006801212B
:100E5000090308432149086001208861204880680F
:100E6000C008C0001E498860084680680121084308
:100E70001B4988600846C068C008C000C8600846B2
:100E8000C068012108431649C8601648C068800838
:100E900080001449C8600846C0680321084311490E
:100EA000C8600846C0683C2188430E49C860E120FC
:100EB000400200F043F800200A494860072088609B
:100EC000152001218140044A803A116000BF0520AD
:100ED0000449486010BD000080E100E080800440CB
:100EE0004040044000800040F3B50B46009D194689
:100EF00000201DE00022D24303E0002A00D106E0DA
:100F0000521E0D4E766920273E40002EF5D000BFC0
:100F1000002A00D10EE0102406E02E78064F3E6035
:100F20006D1C641E491E401C002C01D00029F4D108
:100F30000029DFD100BFFCBD00800040F8B50446A9
:100F40000E48866931460E480068FFF7D9F907094F
:100F500021463846FFF7D4F905460A48C068802183
:100F600008430849C860280A4860E8B20860084693
:100F7000C068802188430349C860F8BD8080044070
:100F8000000000100080004030B47446641E2578D4
:100F9000641CAB4204D3635D5B00E31830BC1847AC
:100FA0001D46F8E738B504460020009009490A4874
:100FB0000068FFF7A5F9054609E00020009002E06F
:100FC0000098401C00900098A842F9D3641E002CA1
:100FD000F3D138BD701700000000001070B5054651
:100FE00000242448006801210903084321490860BE
:100FF000214800680121890308431F490860142023
:10100000FFF7E6FC00BF32E00720011B012088400B
:101010002840002809D018488038006801210903B9
:10102000084315498039086006E01348006801212B
:1010300009030843104908601420FFF7C9FC0E4853
:10104000803800680121890308430B498039086012
:101050001420FFF7BDFC08480068012189030843FC
:10106000054908601420FFF7B3FC601CC4B2082CCB
:10107000CADB70BD002000508022005010B5174818
:1010800000680121090308431449086014480068F6
:10109000012109030843124908600846006801213C
:1010A000890308430E4908600A20FFF791FC0C48A9
:1010B0008030006801210903084309498031086034
:1010C0000A20FFF785FC064880300068012189036B
:1010D000084303498031086010BD00000020005023
:1010E0000022005010B51748006801210903084389
:1010F0001449086014480068012189030843124913
:101100000860084600680121090308430E49086089
:101110000A20FFF75DFC0C48803800680121890334
:1011200008430949803908606420FFF751FC0648EC
:1011300080380068012109030843034980390860A9
:1011400010BD000000200050802200500D48006BB0
:10115000012108430B4908630846806B01210843BD
:101160000849886308480068012189030843064943
:101170000860084600680121090308430249086025
:10118000002070470040044000200050C4B0FC2103
:1011900005A8FFF721F845480068049000240020C6
:1011A000039043A00068029042A000680190FFF7FE
:1011B00003FD41480068414908433F4908604048F1
:1011C0004068C008C0003E49486008464068486022
:1011D0003C4800680121490408433A4908603A48FC
:1011E0000068090108433849086035480068C008AC
:1011F000C00033490860084600680860314800684C
:101200000121090408432F4908602F4880380068ED
:101210000121090408432C4980390860FFF76AF866
:10122000FFF794FF012203A90620FFF72DFC0122FE
:1012300004A90220FFF728FC022202A90120FFF7DF
:10124000F9FAC820FFF7AEFE2FE0052C00DB0024E2
:101250006846027C0121A1408A430274012204A94C
:101260000220FFF711FC601CC4B26846007C611EBE
:1012700001228A401043C1B268460174022201A9CA
:101280000020FFF72BFA69460879FFF775FB0FA0DE
:10129000FFF792FB69464879FFF76EFB0BA0FFF75B
:1012A0008BFBFF20F530FFF77DFECEE7D01200006C
:1012B00002030000FFFF00008080044040000100A6
:1012C0004040044000200050802200500D0A0000E1
:1012D000DA000000F412000000000010040000001A
:1012E00004010000F8120000040000106402000075
:0812F00020010000006CDC028B
:04000005000000C136
:00000001FF
