:020000040000FA
:10000000B00700105D0300006F03000065030000EF
:1000100000000000000000000000000000000000E0
:100020000000000000000000000000006703000066
:10003000000000000000000069030000111A000029
:100040006F0300006F0300006F0300006F030000E8
:100050006F0300006F0300006F0300006F030000D8
:100060006F0300006F0300006D0300006D030000CC
:100070006D0300006D0300006F0300006F030000BC
:100080006F0300006F0300006F0300006F030000A8
:100090006F0300007B1800006F1000006F0300006A
:1000A0006F0300006F0300006F0300006F03000088
:1000B0006D0300006D0300006F0300006D0300007E
:1000C00000F002F800F03EF80CA030C80838241800
:1000D0002D18A246671EAB4654465D46AC4201D180
:1000E00000F030F87E460F3E0FCCB6460126334274
:1000F00000D0FB1AA246AB46334318474422000007
:1001000064220000103A02D378C878C1FAD85207A6
:1001100001D330C830C101D504680C6070470000BD
:100120000023002400250026103A01D378C1FBD813
:10013000520700D330C100D50B6070471FB51FBDFB
:1001400010B510BD02F014F81146FFF7F7FF01F0EB
:10015000B9FC02F02CF803B4FFF7F2FF03BC02F085
:1001600033F8000070B505460C46164602E00FCC89
:100170000FC5103E102EFAD2082E02D303CC03C5B1
:10018000083E042E07D301CC01C5361F03E02178B9
:100190002970641C6D1C761EF9D270BD70B55C4D63
:1001A0000020696AC905090F0B0002F014F8102637
:1001B000090B0D0F11131517191B1D1F21232526C0
:1001C00054481AE0544818E0544816E0544814E0E3
:1001D000544812E0544810E054480EE054480CE0F3
:1001E00054480AE0544808E0544806E0544804E003
:1001F000544802E0544800E05448696AC906890E30
:10020000891C01F005FF424A4032116B514C8E07A8
:100210004F49B60F1ED00023012E04D0022E0DD060
:10022000032E21D10CE010688007800F12D0012826
:1002300010D0022817D0032816D114E0206013E054
:1002400010688007800F01D00128F2D1A868C0058E
:10025000800F01D0216007E0A8683D49C006C00EAC
:10026000401C4843EAE72360916B206801F0D0FE10
:10027000206070BDF8B5384A906B202188439063A8
:10028000234B00261E62009600BF0098401C009081
:10029000C828F9D31E480121403001604160466002
:1002A00041604468E407FCD023279F60946B80255D
:1002B000AC439463DC68E407FCD00324046341632B
:1002C00046634163446BE407FCD08163946B012572
:1002D000AD02AC439463946BAD10AC439463816006
:1002E000C160C660C160C268D207FCD01F61586996
:1002F000C007FCD00648C03006604660416081609F
:100300000348803001680122120411430160F8BDE6
:100310000080044020A1070000350C00E0C8100058
:10032000C05C1500006A180040771B0080841E0026
:10033000C0912100009F240040AC2700E03229003A
:1003400020402C00604D2F0000D4300040E13300ED
:10035000001BB700000000100082044007488047DF
:1003600007480047FEE7FEE7FEE7FEE7FEE7FEE799
:1003700004480549034A054B704700007502000018
:10038000C1000000B0050010B0070010B00500105B
:1003900010B5FB480021818001704170F94A01616C
:1003A000C260416100F0F6FF10BDF54910B5203183
:1003B000002000F032FD10BD10B5F14C1834A288B9
:1003C000402A00D940228020216800F0EAFD2168FF
:1003D00009182160A188081AA08010BD10B5E84C4A
:1003E00000201834216800F049FD216809182160B7
:1003F000A188081AA08010BD10B5002211468020E7
:1004000000F0CFFD10BD10B5DF49002000F036FD33
:1004100010BD70B5DA48DD4C20300078C106C90E39
:100420000AD0D74BD84A184620305D780079012988
:1004300006D0022928D10AE0D148001D206021E021
:10044000002D21D0997888421ED2002016E08F21FD
:100450000840010605D50607360F01210904B14001
:1004600001E001218140002D01D100070CD1D868A5
:10047000084209D01869084000D001201070000A15
:1004800050702260012070BD002070BD70B5024622
:10049000BE48BB4C08300178CB0601464988DB0ECC
:1004A00004D0012B2BD0022B29D111E0012926D118
:1004B0000225002A05D0012000F0B3FBA0882843C4
:1004C00004E0002000F0ADFBA088A843A08027E056
:1004D00000798F231840030605D503071B0F01255C
:1004E0002D049D4001E0012585406378002B06D056
:1004F000030704D0E3682B4201D0002901D000207B
:1005000070BD002A04D000F015FC2069284306E0E5
:100510006169294204D100F03BFC2069A8432061B5
:10052000012070BD30B59948994908300078C978E4
:10053000C006C00E40D19548012908D0944A02292E
:10054000937808D003291ED0062935D12BE0914994
:10055000016012212AE090490022096808E00C7825
:10056000002C04D0CC788D7824022C436118521CC6
:100570009342F4D10A78002A1ED00160CA788B78A1
:100580001102194312E08549002204E00C78002C86
:1005900000D06118521C9342F8D10A78002A0BD07F
:1005A0000160097802E07E4901600A2182888A425E
:1005B00000D98180012030BD002030BDF8B5002079
:1005C000734F00903878C006C00E72D1B8786C4E68
:1005D000002870D07048046867E06078022804D072
:1005E000042841D005285ED141E06179B878814284
:1005F00035D170702079B07061490020891D0022CA
:100600000A54401C0328FAD301250120F168A840B0
:10061000084202D0284600F056FB01200004F16891
:10062000A840084204D028468021084300F04BFB34
:100630006D1C052DE9D35348F060002030617061D6
:100640003546012000F0F9FAE0794006A88802D585
:100650000121084301E040084000A88023E0E07841
:10066000A178000208431FE0E07800901BE00098AA
:10067000002818D1A5788F200540280605D5290720
:10068000090F01200004884001E00120A840F16822
:1006900001432046F16000F0D8FA284600F0E5FA60
:1006A000284600F02AFB207804192078002894D1ED
:1006B00022E025E0FFE7002001247070254628464F
:1006C000F168A040084202D0204600F0FCFA012068
:1006D0000004F168A040084204D02046802108436D
:1006E00000F0F1FA641C052CE9D32648F0600020E4
:1006F0003061706100F0A1FAB8787178884201D059
:100700000020F8BD0120F8BDF0B585B000272048D5
:100710000497019700783E46C006C00E012802D01B
:10072000002005B0F0BD164D68780028F9D00020F3
:1007300003901948046872E06078022804D0042805
:100740000BD0052869D12DE060796978884264D0A2
:10075000E078A1780002084360E0A778E6780020FE
:1007600001900B480179B94257D18078B04254D1F9
:10077000012003900248801DC15D0491C6554CE0E4
:100780000400001001000100780000101C0000109F
:1007900024000010042200007400001090220000C9
:1007A00036230000CB480179B94236D1A1788F2297
:1007B00011400291090605D502990A07120F01217D
:1007C000090401E0029A0121914000918078B04231
:1007D00014D1E8680843E8602969009881432046FD
:1007E000296100F032FA029800F03FFA029800F016
:1007F00084FA01990098014301910EE00498864221
:100800000BD10198084208D1E8688843E86028695C
:1008100088432861029800F056FA2078041920785D
:10082000002889D103987CE7F8B5AA4D0024083D3B
:10083000A84F00942E463978183E030001F0CBFCF7
:10084000083805FBF43838F3F238FFF7AEFD387896
:10085000C00900F0FBF9F888A88038784106890FB4
:1008600002D001296FD142E079780B0001F0B3FC8E
:100870000C070ADE0CDE121A2123292C3CDEFFF7BE
:10088000C8FD11E0002000E00120FFF7FFFD002877
:1008900059D08AE0C006C00E55D1B87880210843EF
:1008A000307082E0FFF73EFE00284CD0FFF784FD59
:1008B000F8BD0020BBE0C006C00E44D185481F38FB
:1008C00010E0FFF77BFEE2E7C006C00E01283AD138
:1008D0007078002837D03879B178884233D27D4992
:1008E0001A3940182860E1E7FFF70EFFCFE7C0068E
:1008F000C00E28D0012826D13879774E012801D0A2
:10090000022834D1787804281ED008DC00280FD0C3
:1009100001280FD002280BD0032828D10FE020286F
:1009200006D0212814D0222817D023281FD11AE05E
:100930002E60F8BD00F0D7FD0CE02E60B6E7788899
:1009400000F0D5FD06E071E0788800F0D2FD07E008
:1009500000F0F5FD0028F0D109E0788800F006FEEF
:10096000002822D103E0788800F002FEF8E7397908
:10097000384600295AD14178584F0B0001F02BFC22
:1009800007050B1825323B495600C08800284DD179
:1009900000F076FC88E0C18840886A4600F08EFC52
:1009A000002843D000980128C3D1FFF725FDF8BDEA
:1009B000C188408800F0B8FC002837D0FFF7FCFC65
:1009C00038680028F3D03C60F8BD418800292DD15B
:1009D000C08806282AD100F0D3FB002826D00620A4
:1009E0002E6014E04188002920D1C08800281DD144
:1009F00000F0F0FB58E04188002917D1C088012899
:100A000014D100F006FC002810D001202E60A88030
:100A1000D4E74188002909D1C088002806D100F018
:100A20003BFC41E051E04EE041E004E0802000F07A
:100A300081F9AC80F8BDC80902D0FFF7E4FCF8BD2D
:100A4000A8880028FBD0FFF7C9FCA8880028F6D1A9
:100A500038784106890FE9D00129E7D1C006C00ED8
:100A6000E4D00128E2D13879002808D1787801282B
:100A7000DCD1F988788800F0E9FB002895D1387935
:100A8000012801D00228D1D17878002806D0022888
:100A900007D02028CAD100F02EFD05E000F021FD8E
:100AA00002E0788800F021FD0028BFD07DE7C8096A
:100AB00000D0FBE630780106C1D54006400E30700C
:100AC00000F0B0F8F8BD002000E0802000F060F9F0
:100AD000F8BD000024000010780000103C00001059
:100AE000FB4801684022114301600168F94A114343
:100AF0000160F948C16849094901C160C268012122
:100B00000A43C2608269D208D200826182690A43C4
:100B10008261704710B5F14C00F020FBC000001955
:100B200010BDF0B5EE49ED488860EE4AC303CB60D6
:100B3000ED490160011DED48026040224260FF2244
:100B400006320A60E74B091D4033082283600346E2
:100B5000DA60E44AE44B80329B1C0B600261402166
:100B600002465161DF4ADD49C03210318261DF4AFD
:100B70004020D0610422DE48DC4B022485022E0C8A
:100B8000DC4D75190D60D50058514026ED186E608A
:100B900085198702B602BE19370CD64EBE19521CF3
:100BA0004E60D6009D514025F618756080300831A2
:100BB000521C641C0A2CE1D3F0BD10B5CE480024B1
:100BC00004604460FFF7ADFFC5488461446101687B
:100BD000802211430160C9490162416210BD00B524
:100BE000FFF77EFF0120C64980050860FFF7E5FF9B
:100BF00000BD0122BA4912040028086801D0104340
:100C000000E090430860704770477047BD48007827
:100C1000800705D5B2480168012252049143016062
:100C200070477047AE490A68D209D2010A600A6863
:100C30008023184302430A607047A949002801D065
:100C4000AE4800E0B048486270477047704710B542
:100C500000F084FA01218140A14842690A434261BF
:100C600042690A42FCD1016210BDF8B50746FFF7A0
:100C700051FF044600680126B607B04320603907DB
:100C800020D03906012500290ADA384600F066FA34
:100C900085409348C069054214D06068B04310E0B5
:100CA0000121C90708432060384600F057FA854003
:100CB0008B48C069054205D060680121B043C9076F
:100CC00008436060F8BD70B50646FFF723FF044691
:100CD000300711D001252068AD0728432060304639
:100CE00000F03CFA0146012088407D49C96908426C
:100CF00002D060682843606070BD70B50546FFF79C
:100D000009FF0446006801214907884320606068A4
:100D100088436060284600F021FA01218140704834
:100D20008069014200D0241D012120680907084381
:100D3000206070BD70B506460007744D30461AD06D
:100D4000FFF7E8FE04460068002802DA3046FFF7A5
:100D50007EFF206828432060304600F0FFF90146FE
:100D6000012088405E49C96908420CD06068241D92
:100D7000002809DB04E0FFF7CDFE04460068F7E732
:100D800020682843206070BD3046FFF760FFF7E71A
:100D9000F8B5064600075D4D304621D0FFF7BAFE94
:100DA00004460068A84320606068A843606030463D
:100DB00000F0D4F901460125284688404849896950
:100DC000084200D0241D0121206809070843206043
:100DD00031060BD44E4908404E4908432060F8BD07
:100DE000FFF798FE0168A9430160F8BD304600F0A6
:100DF000B5F901462846404F884079680842F4D04A
:100E000001212068C90708432060304600F0A6F998
:100E100085407868A8437860F8BDF3B581B0FFF7E6
:100E200079FE04460068810002D4A168890005D5D6
:100E3000364988432060A0688843A060082000905D
:100E40002A48856800980026C01C870808E02868A2
:100E5000029901F0D5F802982D1D001D761C029014
:100E6000B742F4D860682149000C000460608968CA
:100E70008902090C084360600098FEBDF3B589B093
:100E80000998FFF747FE0446099800F067F9450006
:100E9000099800070AD0099800F060F90121814003
:100EA00015480068014201D0241D6D1C20680F49BF
:100EB0008001800DEA005318069301925B68181AAE
:100EC00005908F580026C01C800802902EE000007C
:100ED00080800440004000080040044000400020A2
:100EE000000008400041002004014000B80000104C
:100EF00000420020000040402C000010FF0300C012
:100F000000E100E008000010030000C00000002025
:100F1000FFFF00FC0000408038680A9901F070F87B
:100F20000A98761C001D0A9002983F1DB042F3D823
:100F30002068810E890621600998000716D009985B
:100F400000F00CF90126314681408848C2691142FF
:100F500015D08069864F3860099800F0FFF8864008
:100F60003868064209D0241D6D1C08E0069A8148A5
:100F7000526812041143019A08E0241F6D1E7D4837
:100F8000EA00131821685B681B041943805801228A
:100F90008002000CD20710430143216005980BB07A
:100FA000F0BDF7B582B00298FFF7B4FD0446029891
:100FB00000F0D4F846000298000728D0029800F00C
:100FC000CDF801252946694F8140F869014208D0D2
:100FD000029800F0C3F88540B869054201D0241D8D
:100FE000761C2068634B800E8006206004998D0576
:100FF000AD0D2904F2009E58B602360C3143014370
:1010000021609F580026E81C8008009010E02046D0
:1010100080380122816FD20711438167E1E703988D
:1010200000F0DDFF01C70398001D03900098761CB7
:10103000B042F4D8206881000DD5029909070AD082
:10104000029800F08BF801460120884048494A6820
:101050001043486003E00121C90708432060284687
:1010600005B0F0BD414840684005400D7047F8B5F7
:101070003E4D2E6A2E62002E19DA2C68600107D5CB
:101080002868E90108432860FFF797FD00F0DCFDC0
:10109000E00104D528680121090608432860A00161
:1010A00004D528680121490608432860F8BD70006E
:1010B00005D500F0CDFD2E488168491C8160B00542
:1010C000F4D0002401273846A040304209D06008FF
:1010D000E1070AD0810028484158002901D00320A7
:1010E0008847641C0A2CEED3F8BD002C10D1296867
:1010F000C9050DD520490A68002A09D011460120EA
:1011000088472868FF210131084328600124DAE775
:101110008100194841580029E3D00220E0E7F1B5E9
:1011200001251648AF052E4607600098FFF7F2FC30
:1011300004460098000708D0009800F00FF8864099
:101140000A488069064200D0241D2068002800DA81
:1011500000250A48803807602846F8BD0146000788
:10116000C00E090600D5401C704700000000084072
:101170002C000010B8000010F021000080E100E019
:1011800010B58E494878062809D18D4880784007E7
:1011900001D5022000E0082048700120486048780E
:1011A000032801D0042801D10520487083488C7899
:1011B000083004704B7803710022824942710C7030
:1011C00044784C7084788C70C078C8700B714A7108
:1011D000012010BD794841780A2901D000207047CC
:1011E00002214170002181700120704710B50B462B
:1011F000754914000BD0802802D003D9082010BDF7
:10120000002010BD80014118184600F0A7FE2046BE
:1012100010BD6A484178042903D06A480170012052
:1012200070470A21417000207047704770B5FF2554
:10123000654C1D70002A07D0802801D3082070BD9E
:101240008001001900F09CFB002070BD10B55F48C4
:10125000C17983790A021A43C17883780802184356
:10126000564B574909334039FFF7E0FF53490028EF
:10127000887003D00A204870002010BD012010BDE6
:101280004E4801214278002A00D14170514B504A0A
:101290001A6001700120704700B548484178891EE6
:1012A0000B0000F098FF0805050905050909050967
:1012B00002214170012000BD002000BDF8B50D469F
:1012C00000213E4C116061780A26022902D00529CE
:1012D0000ED101E0002D0AD039498B794F791902DE
:1012E0003943A94206D266700820A07000E06670FB
:1012F0000020F8BD002D12D0032161702F4B304922
:10130000093300224039FFF791FFA0700028EED189
:101310002B4931484039016085800120F8BD062005
:10132000607001201060F8E770B5244C6278022AE2
:1013300002D0092A1BD101E009226270204D0A2641
:10134000AA796B7912021A436D1C8A4202D2667026
:1013500008200BE00A461A494039FFF747FF0222EE
:101360001D49002805D00F2806D86670A0700020FF
:1013700070BD002088800AE0114B80B2403B0B60BA
:10138000888069792B7909021943884200D26270FA
:10139000012070BD70B5094D00246878002801D087
:1013A000022068700B48092201680548123100F0DC
:1013B000D5FDAC7001206C6070BD000038000010DD
:1013C0009801001078000010004000002400001078
:1013D00074220000740000101C00001030B50A6870
:1013E000904C034621461046803108E00D796D0689
:1013F0006D0E655D1D704D686D1C5B1C4D60521E51
:10140000F4D230BD70B502460868864B04461946D2
:10141000803109E00E7815787606760E9D550D68B8
:10142000401E6D1C521C0D600028F3D1204670BD7B
:101430007C4980310A780979511A4906490E0160C0
:101440000020704738B5784C00202080684600F0B6
:101450000EFA68460088010403D521880122114351
:101460002180810403D52188022211432180C106F5
:1014700003D52188042211432180410403D521880A
:10148000082211432180010703D52188102211432E
:101490002180410703D52188202211432180800724
:1014A00003D52088402108432080208838BD10B50E
:1014B00000F0BEF85C48801D00F091FD5A49891D7E
:1014C0000B794A79897900F02BF9574C012060801B
:1014D000FFF7B8FF20805348002180300160416051
:1014E00010BD012070470120704701207047012086
:1014F00070470120704770B54C4800F070FD4B4DAF
:101500000002E978000A090608434749891D00F0EE
:1015100077FD454C2879A41D207168796071A87900
:10152000A07100F09FF800F083F8204600F057FD0E
:1015300023796279A17900F0F3F8012070BD3A486F
:1015400010B5801D00F04BFD3849020A08704A7042
:10155000020C8A70000EC8703348801D02790A712F
:1015600042794A7180798871012010BD012070474D
:101570000120704708B5684600F065F929486946BA
:101580008C3800F01EF9021E05DD264983208C39B7
:10159000FFF707FD08BD24490120488008BD214808
:1015A00008B5803001780079081A4006400E802185
:1015B000081A402803D81C490120888008BD194911
:1015C00003204C39FFF75AFC0090164869464C3806
:1015D000FFF718FF08BD14498888002807D0114874
:1015E000803005C8824202D100208880D7E770474A
:1015F0000C4810B5A1210C38017020214170002148
:101600008170C1700171417102228271C1710649FC
:101610000A2209880172090A417201468120FFF7F6
:10162000C0FC10BD30020010460000107800001011
:101630000121AC4A48051060AB488268D208D2004C
:10164000826082680A438260C268D208D200C260A7
:10165000C2680A43C260A54802680B031A430260CD
:1016600081617047A0488168C908C9008160C1686C
:10167000C908C900C1609E49002048608801994995
:101680000860704710B50446984881699948006819
:1016900000F0BEFC0009214600F0BAFC9449CB687A
:1016A00080221343CB60030A4B60C0B20860C86855
:1016B0009043C86010BD70B501218A484D05056092
:1016C0008A4802680B031A43026081618648826877
:1016D000D208D200826082680A438260C268D2085F
:1016E000D200C260C2680A43C260814CE0688008D0
:1016F0008000E060E06803210843E060E0683C218E
:101700008843E060E1204002FFF7BCFF00206060FA
:101710000720A0607348803805600520606070BDB8
:10172000FFB581B005293CD006293CD007293CD023
:101730000324012B3BD0022B39D00026012A38D0BC
:10174000022A38D0032A38D0042A38D000256A4823
:1017500000270760476088300760476063488169F9
:101760006448006800F054FC0009019900F050FC46
:101770005F498F622C43344380222243CA60C2B245
:101780000A60000A4860CC60032048600720886037
:101790005A4901204860534940058039086005B026
:1017A000F0BD0024C5E70124C3E70224C1E70426F5
:1017B000C4E70825CBE71825C9E72825C7E738255A
:1017C000C5E770B54C4B0A68883304461D46104681
:1017D000803D0BE01E685968B142FDD0491C59603C
:1017E000491E4906490E695C2170641C521EF1D2E3
:1017F00070BD70B5404C02460868803C214680317F
:101800000E684D680346B542FDD109E00E781578A3
:101810007606760EA5550D68401E6D1C521C0D6097
:101820000028F3D135484268002A0AD000224260DD
:101830004868401C4860401E4006400E2C49205C11
:101840000860184670BD2C4988310A780979531A06
:10185000521C5B06490652065B0E490E520E91421F
:1018600001D1012100E000210B43036070472349AF
:101870000A88028000200880704718B51C488168DB
:101880000091490703D400990907890F0FD01A4A1C
:101890000832114680314369DB0708D003680C78B1
:1018A0006406640E13550B685B1C0B60F3E700992C
:1018B000124B890711D5104A14785168641A6406CE
:1018C00009D0491C5160491E4906490E803A515CB5
:1018D0000160002100E00121596040691E2108409B
:1018E000188018BD80E100E0404004408080044042
:1018F0000080004000000010380300105400001069
:1019000030B43E4C332525602061241D0EC4211DBA
:101910003B4A30BC3948104730B4384B322410C3EE
:1019200007C3374A30BC191D3448104730B4334B15
:10193000342410C307C3324A30BC191D2F48104746
:1019400070B5054608200024420223039B188B42F1
:1019500012D92003884209D121462A460846FFF7BA
:10196000DBFF21462A460846FFF7E0FF21462A46CC
:101970000846FFF7D1FF70BD641C8442E5D970BDF5
:10198000F8B5204E174635681F4C6268852A00D18D
:1019900060601A48A268283080183A4600F0DEFAE3
:1019A000A068C019C11FA060F9391CD1154880304A
:1019B000056003CC083CFFF7C3FF104F14373868AD
:1019C000002800D0FEE70D4A03CCFF230133283264
:1019D000083CFFF795FF3868002800D0FEE700209C
:1019E000A0608520606035600020F8BD064807498A
:1019F000016000218160852141607047C8030010AB
:101A0000F11FFF1F00E100E05C00001080BB000040
:101A10007E484168002902D04168491E41607047F4
:101A200010B5FFF744FD10BD38B56846FFF70BFF52
:101A3000009800280EDD764C208800280AD06946E0
:101A40007448FFF7BEFE00212180024671498320C1
:101A5000FFF7A7FA38BD0EB502A8FFF7E9FC029818
:101A600000280EDD202800DD20200090694869460E
:101A70004030FFF7B3FC0190664801A94030FFF702
:101A8000B8FE0EBD10B5FFF7DDFC60490A88824242
:101A900002D00880FFF7ACFD10BD38B50446002524
:101AA0005E4800955C49006800F0B2FA002C08D04E
:101AB0002946009501E0491C00918142FBD3641E38
:101AC000F6D138BD1CB556A0006800252C460195FE
:101AD0000090FEF763FB51487D21C900006800F0CB
:101AE00097FA5049401E88420DD801404E48491E81
:101AF00041614E490722CB691B021B0A060433438E
:101B0000CB6185610261FFF7D2FCFFF768F8012025
:101B1000FFF76FF846480168464A1143016046489E
:101B20004168C908C90041604168416043490A6889
:101B3000080102430A60424A1368034313603E48A7
:101B40004038436ADB08DB004362436A43620E6845
:101B500043151E430E603A4E803E37681F43376080
:101B6000436BDB08DB004363436B01273B43436369
:101B700008687F03384308601068384310600A2003
:101B8000FFF78BFF30683843306000F0CAF901225C
:101B900001A9062000F078F901226946022000F030
:101BA00073F9284E194D012702E0052C00D30024BB
:101BB000694608783946A140884369460870012281
:101BC000022000F061F9694608783946A1400843CF
:101BD00069460870641CFFF727FFFFF753FFFFF704
:101BE0003AFF64206860307800280AD00020FFF7B0
:101BF00000F868686228FCD30120FEF7FAFF002095
:101C0000307068680028FCD1CFE700006800001041
:101C100048000010F00400107017000000000010D1
:101C2000DC000000FFFFFF0000E000E004ED00E04A
:101C300080800440400001004040044000200050EB
:101C4000802200503800001010B5FEF7A1FB10BD37
:101C500010B5FFF7C0FC10BD10B5032808D1FFF781
:101C6000F1FB0A490A88824202D00880FFF7C0FCD3
:101C700010BD704710B5022804D0032801D1FFF72A
:101C800079FC10BDFFF78BFC10BD70477000001091
:101C900038B504460025AC480095AA49006800F014
:101CA000B7F9002C08D02946009501E0491C0091A5
:101CB0008142FBD3641EF6D138BD70B5A3480168DC
:101CC00001252D0329430160A148016829430160D2
:101CD0000168AE00314301600A20FFF7D9FF9C4C38
:101CE00080342068284320600A20FFF7D1FF206855
:101CF0003043206070BD70B59448016801252D0304
:101D000029430160924880300168AE003143016090
:101D10000168294301600A20FFF7BAFF8C4C206854
:101D2000304320606420FFF7B3FF20682843206021
:101D300070BD70B5854A1368012109030B43136018
:101D4000834C834D8034002803D0286808432860E2
:101D500002E02068084320601420FFF799FF2868FC
:101D60000126B603304328601420FFF791FF206856
:101D7000304320601420FFF78BFF70BDF1B573482E
:101D8000002501680126360331430160704C803420
:101D90002068B700384320601420FFF779FF6C4EAD
:101DA0000720411B012088400099084205D0306877
:101DB000012109030843306004E020680121090380
:101DC000084320601420FFF763FF30683843306019
:101DD0001420FFF75DFF2068384320601420FFF7D0
:101DE00057FF6D1CEDB2082DDAD3F8BDF8B5574892
:101DF0000024016827460160554D8035286801267A
:101E0000B603304328606420FFF742FF5148006862
:101E1000C00405D50720011B012088403843C7B204
:101E20001420FFF735FF4A48016831430160142050
:101E3000FFF72EFF2868304328601420FFF728FFA3
:101E4000641CE4B2082CE1D33846F8BD70B53F48B5
:101E50000024016801603E49086801221203104312
:101E6000086008689500284308601420FFF710FFF9
:101E700038480068364880300168294301601420E2
:101E8000FFF706FF204670BD70B514460D460646A6
:101E9000FFF713FF4020FFF771FFFFF7D7FF002880
:101EA0000DD1304601E028786D1CFFF767FFFFF782
:101EB000CDFF002803D1641EF5D2FFF71CFF70BDD3
:101EC00070B514460D460646FFF7F7FE4020FFF7B3
:101ED00055FFFFF7BBFF002822D13046FFF74EFF2A
:101EE000FFF7B4FF00281BD1FFF7E7FE4120FFF703
:101EF00045FFFFF7ABFF002812D1641E06E0FFF795
:101F000075FF287000206D1CFFF713FF641EF6D2CA
:101F1000FFF76CFF28700120FFF70BFFFFF7EBFEC8
:101F200070BD0D48026B01210A430263826B0A43B4
:101F30008263064801680122920311430160002078
:101F400070470000808D5B000000001000200050F2
:101F5000002200500021005000400440F8B5042A3F
:101F60002CD3830712D00B78491C0370401C521EDF
:101F700083070BD00B78491C0370401C521E83074B
:101F800004D00B78491C0370401C521E8B079B0F1A
:101F900005D0C91ADF002023DE1B08C90AE0FEF7BE
:101FA000E1F8F8BD1D4608C9FD401C46B4402C436D
:101FB00010C0121F042AF5D2F308C91A521EF0D419
:101FC0000B78491C0370401C521EEAD40B78491C44
:101FD0000370401C012AE4D409780170F8BD03782D
:101FE000C2781946437812061B0219438378C078D9
:101FF0001B04194311430902090A000608437047EC
:10200000020A08704A70020C8A70020ECA70704789
:10201000002203098B422CD3030A8B4211D30023E5
:102020009C464EE003460B433CD4002243088B42BF
:1020300031D303098B421CD3030A8B4201D394464C
:102040003FE0C3098B4201D3CB01C01A524183093F
:102050008B4201D38B01C01A524143098B4201D3F9
:102060004B01C01A524103098B4201D30B01C01A24
:102070005241C3088B4201D3CB00C01A524183089E
:102080008B4201D38B00C01A524143088B4201D3CB
:102090004B00C01A5241411A00D20146524110462B
:1020A00070475DE0CA0F00D04942031000D34042A0
:1020B000534000229C4603098B422DD3030A8B42D6
:1020C00012D3FC22890112BA030A8B420CD3890174
:1020D00092118B4208D3890192118B4204D389015A
:1020E0003AD0921100E08909C3098B4201D3CB0198
:1020F000C01A524183098B4201D38B01C01A52414D
:1021000043098B4201D34B01C01A524103098B4250
:1021100001D30B01C01A5241C3088B4201D3CB003B
:10212000C01A524183088B4201D38B00C01A52411E
:10213000D9D243088B4201D34B00C01A5241411AF5
:1021400000D20146634652415B10104601D3404223
:10215000002B00D54942704763465B1000D34042D4
:1021600001B50020C046C04602BD704770477047A9
:10217000754600F025F8AE46050069465346C0088E
:10218000C000854618B020B5FEF7F2F860BC002705
:102190004908B6460026C0C5C0C5C0C5C0C5C0C533
:1021A000C0C5C0C5C0C5403D49008D46704710B58B
:1021B0000446C046C0462046FDF7CDFF10BD0000D6
:1021C000004870475005001001491820ABBEFEE7DB
:1021D00026000200704730B47446641E2578641CE3
:1021E000AB4200D21D46635D5B00E31830BC18476C
:1021F00029080000591C000000000000751C0000A8
:102200000000000012010002EF020140C91F0B5044
:1022100000010102030109025D00030100C032094F
:1022200004000000FE01010409210F00FF4000002E
:1022300001080B010202020005090401000102026B
:1022400000050524001001052401010204240202F6
:10225000052406010207058103100010090402008D
:10226000020A00000607050302400000070583027A
:102270004000000009021B00010200C032090400F6
:102280000000FE01020409210700FF4000000100D8
:102290000403090426034E00580050002000530098
:1022A00065006D00690063006F006E0064007500DA
:1022B000630074006F00720073002C034C00500028
:1022C00043003100310055007800780020005500AF
:1022D00053004200200043006F006D0070006F004B
:1022E0007300690074001A03440045004D004F005C
:1022F000300030003000300030003000300030005E
:102300001A034C00500043003100310055007800A2
:1023100078002000440046005500120343004F009F
:102320004D002F0044004100540041000A035600B4
:1023300043004F004D000A0600020000004000006C
:10234000602300000000001078000000040100007D
:10235000D82300007800001038070000200100009A
:10236000006CDC0200000000000000000000000023
:10237000000000000000000000000000000000005D
:10238000000000000000000000000000000000004D
:10239000000000000000000000000000000000003D
:1023A0000000000000000000010000008025000087
:1023B00000000800000000000000000080BB0000DA
:1023C0008500000000000000000000000000000088
:0823D0000000000016220000CD
:04000005000000C136
:00000001FF
