:020000040000FA
:1000000070020010650100006D0100006F0100002A
:1000100000000000000000000000000000000000E0
:10002000000000000000000000000000710100005E
:1000300000000000000000007301000075010000D6
:1000400079010000790100007901000079010000C8
:1000500079010000790100007901000079010000B8
:1000600079010000790100007701000077010000AC
:10007000770100007701000079010000790100009C
:100080007901000079010000790100007901000088
:1000900079010000F10500007901000079010000FC
:1000A0007901000079010000790100007901000068
:1000B000770100007701000079010000790100005C
:1000C00000F002F800F03EF80CA030C80838241800
:1000D0002D18A246671EAB4654465D46AC4201D180
:1000E00000F030F87E460F3E0FCCB6460126334274
:1000F00000D0FB1AA246AB4633431847280A00003B
:10010000480A0000103A02D378C878C1FAD85207DA
:1001100001D330C830C101D504680C6070470000BD
:100120000023002400250026103A01D378C1FBD813
:10013000520700D330C100D50B6070471FB51FBDFB
:1001400010B510BD00F0DCF81146FFF7F7FF00F026
:1001500063FC00F0F4F803B4FFF7F2FF03BC00F017
:10016000FDF800000848804708480047FEE7FEE722
:10017000FEE7FEE7FEE7FEE7FEE70000044805496C
:10018000034A054B7047000025050000C100000030
:1001900070000010700200107000001000220309AF
:1001A0008B422CD3030A8B4211D300239C464EE092
:1001B00003460B433CD4002243088B4231D303094E
:1001C0008B421CD3030A8B4201D394463FE0C30900
:1001D0008B4201D3CB01C01A524183098B4201D318
:1001E0008B01C01A524143098B4201D34B01C01A03
:1001F000524103098B4201D30B01C01A5241C3087B
:100200008B4201D3CB00C01A524183088B4201D3E9
:100210008B00C01A524143088B4201D34B00C01AD5
:100220005241411A00D201465241104670475DE0EA
:10023000CA0F00D04942031000D34042534000226D
:100240009C4603098B422DD3030A8B4212D3FC2216
:10025000890112BA030A8B420CD3890192118B4295
:1002600008D3890192118B4204D389013AD09211AB
:1002700000E08909C3098B4201D3CB01C01A524166
:1002800083098B4201D38B01C01A524143098B422F
:1002900001D34B01C01A524103098B4201D30B0118
:1002A000C01A5241C3088B4201D3CB00C01A52413D
:1002B00083088B4201D38B00C01A5241D9D2430824
:1002C0008B4201D34B00C01A5241411A00D2014661
:1002D000634652415B10104601D34042002B00D5CB
:1002E0004942704763465B1000D3404201B500208D
:1002F000C046C04602BD704770477047FFFFFFFF12
:10030000754600F025F8AE46050069465346C0081C
:10031000C000854618B020B5FFF730FF60BC00274D
:100320004908B6460026C0C5C0C5C0C5C0C5C0C5C1
:10033000C0C5C0C5C0C5403D49008D46704710B519
:100340000446C046C0462046FFF705FF10BD00002A
:100350000048704710000010704700000149182045
:10036000ABBEFEE72600020010B500240F48006B6C
:100370008007800F002806D0012808D002280AD064
:10038000032810D10BE000BF094804460BE000F041
:1003900019F8044607E000F04BF8044603E000F0CB
:1003A0002BF8044600BF00BF204610BD408004402B
:1003B000001BB7000246D006C00E431C0846584337
:1003C000704700000A4909688907890F002902D08F
:1003D000012908D103E000BF064800BF05E000BFC7
:1003E000044800BF01E0002000BF00BF70470000CC
:1003F00040800440001BB70010B5FFF7E3FF044640
:10040000024988682146FFF7D5FF10BD00800440EF
:1004100070B50446E005060FE506ED0E6A1C5100B6
:10042000B200024B9858FFF7B9FE70BDE40A000015
:1004300010B50249486AFFF7EBFF10BD0080044089
:10044000FEB50546FFF790FF029000BF1048C06957
:10045000019001990298FFF7A1FE00900024671E09
:1004600002260DE0601C704301460098FFF796FEDF
:100470000746AF4204D9641CFF2C01D90024B61CE6
:10048000AF42EFD83146204600F03AF8FEBD0000FA
:100490008080044001B50121684600F047F908BD9D
:1004A00070B505460DA000F01BF82806040F092CB6
:1004B00002DD2146373101E021463031C8B2FFF775
:1004C000E9FF2C07240F092C02DD2146373101E01A
:1004D00021463031C8B2FFF7DDFF70BD3078000033
:1004E00010B5044603E02078641CFFF7D3FF2078A2
:1004F0000028F8D110BD10B500F086F810BD00003E
:1005000010B5074B1B68FF242402A3431A460306B9
:100510001B0C1343024C23602346196110BD0000DD
:100520000080054008B500202F4908622F48806BE5
:10053000202188432D4988630020009003E000BFFC
:100540000098401C00900098C828F8D30120264944
:10055000403108604860002048600120486000BFCA
:10056000214840304068C007C00F0028F8D0232041
:100570001D4988601D48806B802188431B49886322
:1005800000BF1948C068C007C00F0028F9D0032079
:100590001549403108630120486300204863012069
:1005A000486300BF10484030406BC007C00F0028B0
:1005B000F8D001200C49403188630C48806B091544
:1005C00008430A4988630846806B89150843074930
:1005D0008863054880300068012109040843024906
:1005E0008031086008BD00000080044000820440A3
:1005F00010B50121034800F075F80248FFF770FFBD
:1006000010BD00000400001010B51520002815DBF7
:10061000C206D20E012191402E4A116000BF00BFD8
:1006200000BFBFF34F8F00BF00BF00BF00BF00BFC0
:1006300000BFBFF36F8F00BF00BF00BF00BF2648E1
:1006400000680121090308432349086001208861EB
:1006500022488068C008C000204988600846806839
:10066000012108431D4988600846C068C008C000D1
:10067000C8600846C068012108431849C860184886
:10068000C068800880001649C8600846C068032119
:1006900008431349C8600846C0683C218843104994
:1006A000C860E120400200F06BF800200C4948606F
:1006B000072088601520002806DBC206D20E012123
:1006C0009140044A803A116000BF05200449486007
:1006D00010BD000080E100E0808004404040044004
:1006E0000080004070B502460B4615461C460020AF
:1006F00016E00021C94303E0002900D106E0491EAD
:10070000094E7669F607F60F002EF5D000BF0029D6
:1007100000D107E0044E36682E706D1C641E401C2C
:10072000002CE6D100BF70BD00800040F3B50B4641
:10073000009D194600201DE00022D24303E0002A5C
:1007400000D106E0521E0D4E766920273E40002E55
:10075000F5D000BF002A00D10EE0102406E02E786C
:10076000064F3E606D1C641E491E401C002C01D0CB
:100770000029F4D10029DFD100BFFCBD008000407A
:10078000F8B504460E48866931460E480068FFF702
:1007900005FD070921463846FFF700FD05460A48D2
:1007A000C068802108430849C860280A4860E8B248
:1007B00008600846C068802188430349C860F8BDC6
:1007C00080800440000000100080004038B50446DE
:1007D0000020009009490A480068FFF7DFFC054641
:1007E00009E00020009002E00098401C0090009872
:1007F000A842F9D3641E002CF3D138BD7017000055
:1008000000000010FEB504460D4616461F46684619
:100810000470457000218170052000074521C90141
:10082000401840680121C9040843052109074522F1
:10083000D201891848600199009800F0B3F800F0DF
:1008400099F8C1B26846017200F094F8C1B26846E6
:10085000417205200007112149024018406801211A
:10086000C90408430521090711225202891848606A
:100870006846407A30706846007A38700020FEBDC5
:1008800010B53848806940094001364988610846FA
:10089000806913210843334988610846406940094B
:1008A0004001486108464069122108432D494861CA
:1008B0002C484030C069400940012A494031C86194
:1008C0000846C0691321084326494031C8610846DB
:1008D000C06AC008C000C8620846C06AC862052075
:1008E0000007012149034018406889010843052198
:1008F00009070122520389184860052000071121C9
:100900004902401840689101084305210907112256
:10091000520289184860144800680121890408437C
:10092000114908600120C8610F48803840680421DF
:1009300008430D49803948600C48406804218843C9
:100940000A49486008460068000A0002C01D80216C
:100950000843064908600648FFF772FD0220034974
:10096000486010BD40400440808004400080054045
:1009700040420F00002000BF0949C968022211400F
:100980000029F9D0FF21064A916000BF0449C968D7
:10099000102211400029F9D10149886870470000F0
:1009A0000080054003B500BF1A48C0680221084016
:1009B0000028F9D0684600781649886000BF1548BD
:1009C000C068102108400028F9D100BF1148C06854
:1009D000022108400028F9D0684640780D49886017
:1009E00000BF0C48C068102108400028F9D100BFA2
:1009F0000848C068022108400028F9D000200549B5
:100A0000886000BF0348C068102108400028F9D161
:100A10000CBD000000800540FFF784FDFFF76BFD73
:100A20001948006819490843174908601848406880
:100A3000C008C0001649486008464068486015482C
:100A400000680121490408431249086012480068FF
:100A50000901084310490860FFF712FF002400E075
:100A6000641C0E488442FBD30DE0322000F01AF8DB
:100A70000446E0B2FFF714FD09A0FFF731FD7D2029
:100A8000C000FFF7A3FEF0E78080044040000100B3
:100A900040400440002000508022005010270000F9
:100AA0000D0A3E0038B50446002500BF15E000AB36
:100AB00001336A46CC211E20FFF7A4FE6846007869
:100AC000002805D168464078A32801D1002038BD10
:100AD0000220FFF77BFE681CC5B2A542E7D30020C9
:100AE000C043F4E700000000C02709009005100093
:100AF000C05C1500F0B31A00200B2000009F2400FA
:100B0000E0322900C0C62D0050973100E067350063
:100B10007038390000093D00401640008023430032
:100B2000C0304600440B000000000010040000002C
:100B300004010000480B0000040000106C020000DB
:080B400020010000006CDC0242
:04000005000000C136
:00000001FF
