:020000040000FA
:10000000F80800105D0300006F03000065030000A6
:1000100000000000000000000000000000000000E0
:100020000000000000000000000000006703000066
:10003000000000000000000069030000091A000031
:100040006F0300006F0300006F0300006F030000E8
:100050006F0300006F0300006F0300006F030000D8
:100060006F0300006F0300006D0300006D030000CC
:100070006D0300006D0300006F0300006F030000BC
:100080006F0300006F0300006F0300006F030000A8
:100090006F0300006D180000851000006F03000062
:1000A0006F0300006F0300006F0300006F03000088
:1000B0006D0300006D0300006F0300006D0300007E
:1000C00000F002F800F03EF80CA030C80838241800
:1000D0002D18A246671EAB4654465D46AC4201D180
:1000E00000F030F87E460F3E0FCCB6460126334274
:1000F00000D0FB1AA246AB4633431847F026000057
:1001000010270000103A02D378C878C1FAD85207F5
:1001100001D330C830C101D504680C6070470000BD
:100120000023002400250026103A01D378C1FBD813
:10013000520700D330C100D50B6070471FB51FBDFB
:1001400010B510BD02F06AFA1146FFF7F7FF01F093
:10015000FEFC02F082FA03B4FFF7F2FF03BC02F0E8
:1001600089FA000070B505460C46164602E00FCC31
:100170000FC5103E102EFAD2082E02D303CC03C5B1
:10018000083E042E07D301CC01C5361F03E02178B9
:100190002970641C6D1C761EF9D270BD70B55C4D63
:1001A0000020696AC905090F0B0002F06AFA1026DF
:1001B000090B0D0F11131517191B1D1F21232526C0
:1001C00054481AE0544818E0544816E0544814E0E3
:1001D000544812E0544810E054480EE054480CE0F3
:1001E00054480AE0544808E0544806E0544804E003
:1001F000544802E0544800E05448696AC906890E30
:10020000891C02F05BF9424A4032116B514C8E0757
:100210004F49B60F1ED00023012E04D0022E0DD060
:10022000032E21D10CE010688007800F12D0012826
:1002300010D0022817D0032816D114E0206013E054
:1002400010688007800F01D00128F2D1A868C0058E
:10025000800F01D0216007E0A8683D49C006C00EAC
:10026000401C4843EAE72360916B206802F026F9BE
:10027000206070BDF8B5384A906B202188439063A8
:10028000234B00261E62009600BF0098401C009081
:10029000C828F9D31E480121403001604160466002
:1002A00041604468E407FCD023279F60946B80255D
:1002B000AC439463DC68E407FCD00324046341632B
:1002C00046634163446BE407FCD08163946B012572
:1002D000AD02AC439463946BAD10AC439463816006
:1002E000C160C660C160C268D207FCD01F61586996
:1002F000C007FCD00648C03006604660416081609F
:100300000348803001680122120411430160F8BDE6
:100310000080044020A1070000350C00E0C8100058
:10032000C05C1500006A180040771B0080841E0026
:10033000C0912100009F240040AC2700E03229003A
:1003400020402C00604D2F0000D4300040E13300ED
:10035000001BB700000000100082044007488047DF
:1003600007480047FEE7FEE7FEE7FEE7FEE7FEE799
:1003700004480549034A054B704700007502000018
:10038000C1000000F8060010F8080010F806001080
:1003900010B5FB480021818001704170F94A01616C
:1003A000C260416101F000F810BDF54910B520317F
:1003B000002000F03BFD10BD10B5F14C1834A288B0
:1003C000402A00D940228020216800F0F5FD2168F4
:1003D00009182160A188081AA08010BD10B5E84C4A
:1003E00000201834216800F052FD216809182160AE
:1003F000A188081AA08010BD10B5002211468020E7
:1004000000F0DAFD10BD10B5DF49002000F03FFD1F
:1004100010BD70B5DA48DD4C20300078C106C90E39
:100420000AD0D74BD84A184620305D780079012988
:1004300006D0022928D10AE0D148001D206021E021
:10044000002D21D0997888421ED2002016E08F21FD
:100450000840010605D50607360F01210904B14001
:1004600001E001218140002D01D100070CD1D868A5
:10047000084209D01869084000D001201070000A15
:1004800050702260012070BD002070BD70B5024622
:10049000BE48BB4C08300178CB0601464988DB0ECC
:1004A00004D0012B2BD0022B29D111E0012926D118
:1004B0000225002A05D0012000F0BCFBA0882843BB
:1004C00004E0002000F0B6FBA088A843A08027E04D
:1004D00000798F231840030605D503071B0F01255C
:1004E0002D049D4001E0012585406378002B06D056
:1004F000030704D0E3682B4201D0002901D000207B
:1005000070BD002A04D000F01EFC2069284306E0DC
:100510006169294204D100F044FC2069A8432061AC
:10052000012070BD30B59948994908300078C978E4
:10053000C006C00E40D19548012908D0944A02292E
:10054000937808D003291ED0062935D12BE0914994
:10055000016012212AE090490022096808E00C7825
:10056000002C04D0CC788D7824022C436118521CC6
:100570009342F4D10A78002A1ED00160CA788B78A1
:100580001102194312E08549002204E00C78002C86
:1005900000D06118521C9342F8D10A78002A0BD07F
:1005A0000160097802E07E4901600A2182888A425E
:1005B00000D98180012030BD002030BDF8B5002079
:1005C000734F00903878C006C00E72D1B8786C4E68
:1005D000002870D07048046867E06078022804D072
:1005E000042841D005285ED141E06179B878814284
:1005F00035D170702079B07061490020891D0022CA
:100600000A54401C0328FAD301250120F168A840B0
:10061000084202D0284600F05FFB01200004F16888
:10062000A840084204D028468021084300F054FB2B
:100630006D1C052DE9D35348F060002030617061D6
:100640003546012000F002FBE0794006A88802D57B
:100650000121084301E040084000A88023E0E07841
:10066000A178000208431FE0E07800901BE00098AA
:10067000002818D1A5788F200540280605D5290720
:10068000090F01200004884001E00120A840F16822
:1006900001432046F16000F0E1FA284600F0EEFA4E
:1006A000284600F033FB207804192078002894D1E4
:1006B00022E025E0FFE7002001247070254628464F
:1006C000F168A040084202D0204600F005FB01205E
:1006D0000004F168A040084204D02046802108436D
:1006E00000F0FAFA641C052CE9D32648F0600020DB
:1006F0003061706100F0AAFAB8787178884201D050
:100700000020F8BD0120F8BDF0B585B000272048D5
:100710000497019700783E46C006C00E012802D01B
:10072000002005B0F0BD164D68780028F9D00020F3
:1007300003901948046872E06078022804D0042805
:100740000BD0052869D12DE060796978884264D0A2
:10075000E078A1780002084360E0A778E6780020FE
:1007600001900B480179B94257D18078B04254D1F9
:10077000012003900248801DC15D0491C6554CE0E4
:1007800004000010010001007C0000101C0000109B
:1007900024000010B0260000780000103C27000064
:1007A000E2270000CB480179B94236D1A1788F22E7
:1007B00011400291090605D502990A07120F01217D
:1007C000090401E0029A0121914000918078B04231
:1007D00014D1E8680843E8602969009881432046FD
:1007E000296100F03BFA029800F048FA029800F004
:1007F0008DFA01990098014301910EE00498864218
:100800000BD10198084208D1E8688843E86028695C
:1008100088432861029800F05FFA20780419207854
:10082000002889D103987CE7F8B5AA4D0024083D3B
:10083000A84F00942E463978183E030001F021FF9E
:10084000083805FBF43838F3F238FFF7AEFD387896
:10085000C00900F004FAF888A88038784106890FAA
:1008600002D001296FD142E079780B0001F009FF35
:100870000C070ADE0CDE121A2123292C3CDEFFF7BE
:10088000C8FD11E0002000E00120FFF7FFFD002877
:1008900059D08AE0C006C00E55D1B87880210843EF
:1008A000307082E0FFF73EFE00284CD0FFF784FD59
:1008B000F8BD0020BBE0C006C00E44D185481F38FB
:1008C00010E0FFF77BFEE2E7C006C00E01283AD138
:1008D0007078002837D03879B178884233D27D4992
:1008E0001A3940182860E1E7FFF70EFFCFE7C0068E
:1008F000C00E28D0012826D13879774E012801D0A2
:10090000022834D1787804281ED008DC00280FD0C3
:1009100001280FD002280BD0032828D10FE020286F
:1009200006D0212814D0222817D023281FD11AE05E
:100930002E60F8BD00F0DAFD0CE02E60B6E7788896
:1009400000F0D8FD06E071E0788800F0D5FD07E002
:1009500000F0F8FD0028F0D109E0788800F009FEE9
:10096000002822D103E0788800F005FEF8E7397905
:10097000384600295AD14178584F0B0001F081FECA
:1009800007050B1825323B495600C08800284DD179
:1009900000F080FC88E0C18840886A4600F098FC3E
:1009A000002843D000980128C3D1FFF725FDF8BDEA
:1009B000C188408800F0C2FC002837D0FFF7FCFC5B
:1009C00038680028F3D03C60F8BD418800292DD15B
:1009D000C08806282AD100F0DDFB002826D006209A
:1009E0002E6014E04188002920D1C08800281DD144
:1009F00000F0FAFB58E04188002917D1C08801288F
:100A000014D100F010FC002810D001202E60A88026
:100A1000D4E74188002909D1C088002806D100F018
:100A200045FC41E051E04EE041E004E0802000F070
:100A30008AF9AC80F8BDC80902D0FFF7E4FCF8BD24
:100A4000A8880028FBD0FFF7C9FCA8880028F6D1A9
:100A500038784106890FE9D00129E7D1C006C00ED8
:100A6000E4D00128E2D13879002808D1787801282B
:100A7000DCD1F988788800F0F3FB002895D138792B
:100A8000012801D00228D1D17878002806D0022888
:100A900007D02028CAD100F031FD05E000F024FD88
:100AA00002E0788800F024FD0028BFD07DE7C80967
:100AB00000D0FBE630780106C1D54006400E30700C
:100AC00000F0B9F8F8BD002000E0802000F069F9DE
:100AD000F8BD0000240000107C0000103C00001055
:100AE000FE4801684022114301600168FC4A11433D
:100AF0000160FC48C16849094901C160C26801211F
:100B00000A43C2608269D208D200826182690A43C4
:100B10008261704710B5F44C00F02BFBC000001947
:100B200010BDF0B5F149F0488860F14AC303CB60CD
:100B3000F0490160011DF048026040224260FF223E
:100B400006320A60EA4B091D4033082283600346DF
:100B5000DA60E74AE74B80329B1C0B600261402160
:100B600002465161E24AE049C03210318261E24AF4
:100B70004020D0610422E148DF4B022485022E0C84
:100B8000DF4D75190D60D50058514026ED186E6087
:100B900085198702B602BE19370CD94EBE19521CF0
:100BA0004E60D6009D514025F618756080300831A2
:100BB000521C641C0A2CE1D3F0BD10B5D1480024AE
:100BC00004604460FFF7ADFFC84884614461016878
:100BD000802211430160CC490162416210BD00B521
:100BE000FFF77EFFC9480168FF22120491430322E8
:100BF0005205114301600120C54980050860FFF7D7
:100C0000DCFF00BD0122B94912040028086801D0A8
:100C1000104300E090430860704770477047BD483C
:100C20000078800705D5B14801680122520491433C
:100C3000016070477047AD490A68D209D2010A6065
:100C40000A688023184302430A607047A7490028B6
:100C500001D0AD4800E0B048486270477047704727
:100C600010B500F086FA01218140A04842690A438C
:100C7000426142690A42FCD1016210BDF8B50746E3
:100C8000FFF748FF044600680126B607B04320601E
:100C9000390720D03906012500290ADA384600F044
:100CA00068FA85409148C069054214D06068B04335
:100CB00010E00121C90708432060384600F059FAC6
:100CC00085408A48C069054205D060680121B0436B
:100CD000C90708436060F8BD70B50646FFF71AFF04
:100CE0000446300711D001252068AD072843206055
:100CF000304600F03EFA0146012088407B49C96930
:100D0000084202D060682843606070BD70B5054637
:100D1000FFF700FF0446006801214907884320606F
:100D2000606888436060284600F023FA0121814012
:100D30006E488069014200D0241D01212068090706
:100D40000843206070BD70B506460007734D3046FD
:100D50001AD0FFF7DFFE04460068002802DA3046AA
:100D6000FFF77EFF206828432060304600F001FA3C
:100D70000146012088405D49C96908420CD060687D
:100D8000241D002809DB04E0FFF7C4FE04460068C8
:100D9000F7E720682843206070BD3046FFF760FF0A
:100DA000F7E7F8B5064600075C4D304621D0FFF75F
:100DB000B1FE04460068A84320606068A8436060F4
:100DC000304600F0D6F901460125284688404749BB
:100DD0008969084200D0241D0121206809070843C1
:100DE000206031060BD44E4908404E49084320602C
:100DF000F8BDFFF78FFE0168A9430160F8BD3046DA
:100E000000F0B7F9014628463E4F8840796808420D
:100E1000F4D001212068C90708432060304600F063
:100E2000A8F985407868A8437860F8BDF3B581B02B
:100E3000FFF770FE04460068810002D4A1688900B3
:100E400005D5364988432060A0688843A060082003
:100E500000902948856800980026C01C870808E093
:100E60002868029901F022FB02982D1D001D761CB6
:100E70000290B742F4D860681F49000C000460601B
:100E800089688902090C084360600098FEBDF3B5CB
:100E900089B00998FFF73EFE0446099800F069F909
:100EA0004500099800070AD0099800F062F901216D
:100EB000814014480068014201D0241D6D1C206847
:100EC0000D498001800DEA005318069301925B687A
:100ED000181A05908F580026C01C25E08080044019
:100EE000004000080040044000400020000008408E
:100EF0000041002004014000BC000010004200201E
:100F0000000040402C000010FF0300C014E400E08B
:100F100000E100E008000010030000C00000002015
:100F2000FFFF00FC000040808008029009E0386864
:100F30000A9901F0BBFA0A98761C001D0A900298E3
:100F40003F1DB042F3D82068810E890621600998C0
:100F5000000716D0099800F00CF9012631468140AF
:100F60008748C269114215D08069864F3860099858
:100F700000F0FFF886403868064209D0241D6D1C39
:100F800008E0069A8048526812041143019A08E06A
:100F9000241F6D1E7C48EA00131821685B681B043F
:100FA0001943805801228002000CD20710430143EC
:100FB000216005980BB0F0BDF7B582B00298FFF73D
:100FC000A9FD0446029800F0D4F8460002980007F4
:100FD00028D0029800F0CDF801252946684F8140BD
:100FE000F869014208D0029800F0C3F88540B8695A
:100FF000054201D0241D761C2068634B800E8006BC
:10100000206004998D05AD0D2904F2009E58B602AA
:10101000360C3143014321609F580026E81C8008AC
:10102000009010E0204680380122816FD2071143E2
:101030008167E1E7039801F028FA01C70398001DD2
:1010400003900098761CB042F4D8206881000DD53A
:10105000029909070AD0029800F08BF80146012096
:10106000884048494A681043486003E00121C907A5
:1010700008432060284605B0F0BD4148406840055F
:10108000400D7047F8B53E4D2E6A2E62002E19DADB
:101090002C68600107D52868E90108432860FFF73C
:1010A0008CFD00F00DFEE00104D528680121090641
:1010B00008432860A00104D5286801214906084397
:1010C0002860F8BD700005D500F0FEFD2D48816850
:1010D000491C8160B005F4D0002401273846A040A7
:1010E000304209D06008E1070AD081002748415802
:1010F000002901D003208847641C0A2CEED3F8BDD8
:10110000002C10D12968C9050DD520490A68002A8C
:1011100009D01146012088472868FF210131084382
:1011200028600124DAE78100184841580029E3D0FB
:101130000220E0E7F1B501251548AF052E4607600E
:101140000098FFF7E7FC04460098000708D00098D5
:1011500000F00FF886400A488069064200D0241D3E
:101160002068002800DA00250948803807602846F2
:10117000F8BD01460007C00E090600D5401C7047A7
:10118000000008402C000010BC0000109C2600004D
:1011900080E100E010B58E494878062809D18D48D5
:1011A0008078400701D5022000E008204870012027
:1011B00048604878032801D0042801D105204870F0
:1011C00083488C78083004704B7803710022824980
:1011D00042710C7044784C7084788C70C078C87000
:1011E0000B714A71012010BD794841780A2901D05C
:1011F000002070470221417000218170012070475A
:1012000010B50B46754914000BD0802802D003D9C5
:10121000082010BD002010BD80014118184601F0C3
:10122000D3F8204610BD6A484178042903D06A48A3
:101230000170012070470A214170002070477047FB
:1012400070B5FF25654C1D70002A07D0802801D39A
:10125000082070BD8001001900F08EFB002070BDD9
:1012600010B55F48C17983790A021A43C17883783F
:1012700008021843564B574909334039FFF7E0FF3E
:1012800053490028887003D00A204870002010BD00
:10129000012010BD4E4801214278002A00D1417042
:1012A000514B504A1A6001700120704700B5484800
:1012B0004178891E0B0001F0E4F9080505090505D0
:1012C0000909050902214170012000BD002000BD6F
:1012D000F8B50D4600213E4C116061780A260229BE
:1012E00002D005290ED101E0002D0AD039498B79B1
:1012F0004F7919023943A94206D266700820A070BE
:1013000000E066700020F8BD002D12D0032161704E
:101310002F4B3049093300224039FFF791FFA0706D
:101320000028EED12B4931484039016085800120E9
:10133000F8BD0620607001201060F8E770B5244CFD
:101340006278022A02D0092A1BD101E009226270C8
:10135000204D0A26AA796B7912021A436D1C8A4223
:1013600002D2667008200BE00A461A494039FFF79E
:1013700047FF02221D49002805D00F2806D86670B5
:10138000A070002070BD002088800AE0114B80B260
:10139000403B0B60888069792B79090219438842A8
:1013A00000D26270012070BD70B5094D00246878CC
:1013B000002801D0022068700B4809220168054806
:1013C000123101F001F8AC7001206C6070BD0000BA
:1013D000380000109C0100107C000010004000004C
:1013E0002400001020270000780000101C000010CE
:1013F00030B50A688C4C0346E11D1046F93106E011
:101400000D79655D1D704D686D1C5B1C4D60521E35
:10141000F6D230BD70B502460868834B0446D91D2C
:10142000F93107E00E7815789D550D68401E6D1C4A
:10143000521C0D600028F5D1204670BD7B490A780A
:101440000979511AC9B201600020704738B5784C4B
:1014500000202080684600F003FA684600880104F6
:1014600003D52188012211432180810403D52188DD
:10147000022211432180C10603D521880422114391
:101480002180410403D521880822114321800107CE
:1014900003D52188102211432180410703D52188DB
:1014A000202211432180800703D520884021084352
:1014B0002080208838BD10B500F0BEF85C48801D43
:1014C00000F0E3FF5A49891D0B794A79897900F0C8
:1014D0002BF9574C01206080FFF7B8FF208053485C
:1014E00000210160416010BD01207047012070475C
:1014F00001207047012070470120704770B54D48AA
:1015000000F0C3FF4B4D0002E978000A09060843CA
:101510004749891D00F0CAFF454C2879A41D207158
:1015200068796071A879A07100F0A0F800F084F8E3
:10153000204600F0AAFF23796279A17900F0F4F83F
:10154000012070BD3A4810B5801D00F09EFF39495A
:10155000020A08704A70020C8A70000EC870344883
:10156000801D02790A7142794A718079887101205F
:1015700010BD012070470120704708B5684600F093
:1015800060F9294869468C3800F01FF9021E05DD14
:10159000254983208C39FFF70FFD08BD2449012020
:1015A000488008BD08B5214801780079081AFF2154
:1015B000C0B20131081A402803D81D490120888093
:1015C00008BD194903204C39FFF761FC009016480B
:1015D00069464C38FFF71EFF08BD1549888800286A
:1015E00006D0124805C8824202D100208880D9E77F
:1015F00070470D4810B5A1210C38017020214170B1
:1016000000218170C1700171417102228271C1712A
:1016100007490A2209880172090A4172014681209C
:10162000FFF7CAFC10BD00003402001034030010A4
:10163000460000107C0000100121A64A48051060F9
:10164000A5488268D208D200826082680A4382601C
:10165000C268D208D200C260C2680A43C2609F4812
:1016600002680B031A430260816170479A488168DF
:10167000C908C9008160C168C908C900C16098492A
:1016800000204860880193490860704710B50446FF
:10169000924881699348006800F010FF00092146D4
:1016A00000F00CFF8E49CB6880221343CB60030A05
:1016B0004B60C0B20860C8689043C86010BD70B588
:1016C000012184484D050560844802680B031A43D4
:1016D0000260816180488268D208D200826082689C
:1016E0000A438260C268D208D200C260C2680A435C
:1016F000C2607B4CE06880088000E060E068032105
:101700000843E060E0683C218843E060E12040025B
:10171000FFF7BCFF002060600720A0606D488038A4
:1017200005600520606070BDFFB581B005293CD023
:1017300006293CD007293CD00324012B3BD0022BA7
:1017400039D00026012A38D0022A38D0032A38D0CE
:10175000042A38D000256448002707604760FF301E
:101760000930076047605D4881695E48006800F0A5
:10177000A5FE0009019900F0A1FE59498F622C4392
:10178000344380222243CA600860000A4860CC606B
:1017900003204860072088605449012048604D4973
:1017A00040058039086005B0F0BD0024C5E701247C
:1017B000C3E70224C1E70426C4E70825CBE71825C0
:1017C000C9E72825C7E73825C5E770B5484B0A683B
:1017D0000446DD1F1046F93D0AE01E685968B14213
:1017E000FDD0491C5960491EC9B2695C2170641C56
:1017F000521EF2D270BD70B502463E4C0868E11D23
:10180000F9310E684D680346B542FDD107E00E7808
:101810001578A5550D68401E6D1C521C0D600028E2
:10182000F5D132484268002A09D000224260486857
:10183000401C4860401EC0B22949205C0860184620
:1018400070BD2B490A780979531A521CD2B2DBB207
:10185000914201D1012100E000210B430360704758
:1018600022490A88028000200880704718B51C4869
:1018700081680091490703D400990907890F0DD0A9
:10188000194A0832D11DF9314369DB0706D00368D4
:101890000C7813550B685B1C0B60F5E70099134B34
:1018A000890711D5104A14785168641A2406240E49
:1018B00008D0491C5160491E0E4AC9B2515C0160F2
:1018C000002100E00121596040691E210840188074
:1018D00018BD000080E100E04040044080800440EA
:1018E00000800040000000103C0400105400001074
:1018F000440500103C03001030B43E4C33252560F5
:101900002061241D0EC4211D3B4A30BC39481047BC
:1019100030B4384B322410C307C3374A30BC191DCA
:101920003448104730B4334B342410C307C3324A11
:1019300030BC191D2F48104770B5054608200024FB
:10194000420223039B188B4212D92003884209D1FB
:1019500021462A460846FFF7DBFF21462A4608466D
:10196000FFF7E0FF21462A460846FFF7D1FF70BD8A
:10197000641C8442E5D970BDF8B5204E1746356821
:101980001F4C6268852A00D160601A48A26828301E
:1019900080183A4600F018FDA068C019C11FA06069
:1019A000F9391CD115488030056003CC083CFFF79D
:1019B000C3FF104F14373868002800D0FEE70D4AE7
:1019C00003CCFF2301332832083CFFF795FF38682A
:1019D000002800D0FEE70020A06085206060356010
:1019E0000020F8BD0648074901600021816085217B
:1019F000416070474C050010F11FFF1F00E100E03F
:101A00005C00001080BB00009E488168002902D065
:101A10008168491E8160704710B5FFF74CFD10BD0D
:101A200070B5C2B0FF21013101A800F02CFD01AE5C
:101A30006846FFF706FF009800283DD0914D924C74
:101A4000A878401CA870C007207825D0FD21084048
:101A5000207001228C49022000F0BDFB8B480088D9
:101A6000002829D0E878401CE870C007207816D0FC
:101A7000FB210840207001228349022000F0ABFBCB
:101A8000694601A8FFF7A1FE0446304600F02AFC93
:101A9000E0B200F02EFC1BE002210843D8E704214D
:101AA0000843E7E73F2C09D8224631468320FFF759
:101AB00083FAC0B200F01DFC42B070BD3F22314637
:101AC0008320FFF779FAC0B200F013FC3F3C3F36A9
:101AD000002CE7D1F0E70EB502A8FFF7AFFC0298A3
:101AE000002813DD202800DD20200090694668488A
:101AF000FFF77EFC019001A96548FFF77CFE644872
:101B00000078AA2802D15F49012008700EBD10B5E7
:101B1000FFF79CFC5B49CA88824202D0C880FFF76D
:101B200068FD10BD38B5044600255B48009559494D
:101B3000006800F0C3FC002C08D02946009501E0A5
:101B4000491C00918142FBD3641EF6D138BD1CB5FF
:101B5000002552A0009500682C460190FEF71EFB60
:101B60004D487D21C900006800F0A8FC4C49401E8A
:101B700088420DD801404B48491E41614A4907231C
:101B8000CA691202120A06043243CA6185610361FE
:101B9000FFF791FCFFF723F80120FFF733F84348E4
:101BA0000168434A1143016042484168C908C900BD
:101BB00041604168416040490A68080102430A6087
:101BC0003E4A1368034313603A484038436ADB08CF
:101BD000DB004362436A43620D6843151D430D6099
:101BE000364D803D2E681E432E60436BDB08DB00C4
:101BF0004363436B012633434363086877033843E9
:101C000008601068384310600A20FFF78BFF2868CF
:101C10003843286000F02CFB01226946062000F0C2
:101C2000DAFA01221849022000F0D5FA022201A9AD
:101C3000012000F074F9C820FFF774FF124D0A2745
:101C40006E1E641CE007287818D0400840002870F9
:101C500001220D49022000F0BEFA0B490222C91CE4
:101C6000002000F078F9FFF736FFFFF750FFFFF78D
:101C7000D7FEB760B0680028FCD1E2E70121084335
:101C8000E5E700006800001069000010480000103F
:101C9000740600107017000000000010020300001E
:101CA000FFFFFF0000E000E004ED00E08080044062
:101CB00040000100404004400020005080220050BD
:101CC00010B5FEF765FB10BD10B5FFF786FC10BD23
:101CD00010B5032808D1FFF7B9FB0A490A888242E8
:101CE00002D00880FFF785FC10BD704710B50228B0
:101CF00004D0032801D1FFF740FC10BDFFF752FCD0
:101D000010BD70477400001038B504460025A8487F
:101D10000095A649006800F0D1FB002C08D02946A8
:101D2000009501E0491C00918142FBD3641EF6D16D
:101D300038BD70B59F48016801252D032943016016
:101D40009D480168294301600168AE00314301608C
:101D50000220FFF7D9FF984C803420682843206088
:101D60000220FFF7D1FF20683043206070BD70B5BE
:101D70009048016801252D03294301608E48803079
:101D80000168AE003143016001682943016002200F
:101D9000FFF7BAFF884C2068304320600220FFF72D
:101DA000B3FF20682843206070BD70B5814A136876
:101DB000012109030B4313607F4C7F4D80340028C1
:101DC00003D028680843286002E0206808432060A8
:101DD0000120FFF799FF28680126B60330432860E9
:101DE0000120FFF791FF2068304320600220FFF7B9
:101DF0008BFF70BDF1B56F480025016801263603E1
:101E0000314301606C4C80342068B7003843206057
:101E10000220FFF779FF684E0720411B0120884010
:101E20000099084205D03068012109030843306059
:101E300004E0206801210903084320600220FFF725
:101E400063FF3068384330600120FFF75DFF206892
:101E5000384320600220FFF757FF6D1CEDB2082DBC
:101E6000DAD3F8BDF8B553480024016827460122AB
:101E7000120391430160504D80352868960030432D
:101E800028606420FFF740FF4C480068C00405D577
:101E90000720011B012088403843C7B20220FFF70A
:101EA00033FF45480168314301600220FFF72CFFF2
:101EB0002868304328600220FFF726FF641CE4B244
:101EC000082CE1D33846F8BD70B53A4800240268C2
:101ED000012109038A430260374802680A4302600D
:101EE00001680125AD03294301600220FFF70CFFC3
:101EF000324807E0641CFA2C04D90124FFF737FFAD
:101F0000204670BD0168C904F4D42B4800248030F9
:101F10000168294301600220FFF7F6FEF0E770B583
:101F200014460D460646FFF704FF9020FFF762FFB8
:101F3000FFF7CAFF00280DD1304601E028786D1C5C
:101F4000FFF758FFFFF7C0FF002803D1641EF5D24A
:101F5000FFF70DFF70BD70B514460D460646FFF73E
:101F6000E8FE9020FFF746FFFFF7AEFF00281BD1E9
:101F70003046FFF73FFFFFF7A7FF002814D1FFF718
:101F8000D8FE9120FFF736FFFFF79EFF00280BD108
:101F900006E0FFF767FF287000206D1CFFF705FFC4
:101FA000641EF6D2FFF7E3FE70BD0000808D5B007B
:101FB00000000010002000500022005000210050BE
:101FC00038B504460025B5480095B349006800F0CF
:101FD00075FA002C08D02946009501E0491C0091B3
:101FE0008142FBD3641EF6D138BD70B5AC480168A0
:101FF00001252D0329430160AA4801682943016096
:102000000168AE00314301600A20FFF7D9FFA54CFB
:1020100080342068284320600A20FFF7D1FF206821
:102020003043206070BD70B59D48016801252D03C7
:10203000294301609B4880300168AE003143016054
:102040000168294301600A20FFF7BAFF954C206818
:10205000304320606420FFF7B3FF206828432060EE
:1020600070BD70B58E4A1368012109030B431360DC
:102070008C4C8C4D8034002803D02868084328609D
:1020800002E02068084320601420FFF799FF2868C9
:102090000126B603304328601420FFF791FF206823
:1020A000304320601420FFF78BFF70BDF1B57C48F2
:1020B000002501680126360331430160794C8034E4
:1020C0002068B700384320601420FFF779FF754E71
:1020D0000720411B012088400099084205D0306844
:1020E000012109030843306004E02068012109034D
:1020F000084320601420FFF763FF306838433060E6
:102100001420FFF75DFF2068384320601420FFF79C
:1021100057FF6D1CEDB2082DDAD3F8BDF8B5604855
:1021200000240168274601221203914301605D4D9E
:10213000803528689600304328606420FFF740FF10
:1021400059480068C00405D50720011B01208840BC
:102150003843C7B21420FFF733FF524801683143B8
:1021600001601420FFF72CFF2868304328601420FA
:10217000FFF726FF641CE4B2082CE1D33846F8BD13
:1021800070B5474800240268012109038A430260B0
:10219000444802680A43026001680125AD032943EF
:1021A00001601420FFF70CFF3F4807E0641CFA2C85
:1021B00004D90124FFF737FF204670BD0168C90428
:1021C000F4D4384800248030016829430160142089
:1021D000FFF7F6FEF0E770B514460D460646FFF72A
:1021E00004FF4020FFF762FFFFF7CAFF00280DD170
:1021F000304601E028786D1CFFF758FFFFF7C0FF5D
:10220000002803D1641EF5D2FFF70DFF70BD70B535
:1022100014460D460646FFF7E8FE4020FFF746FF4E
:10222000FFF7AEFF002822D13046FFF73FFFFFF750
:10223000A7FF00281BD1FFF7D8FE4120FFF736FF8C
:10224000FFF79EFF002812D1641E06E0FFF766FF2D
:10225000287000206D1CFFF704FF641EF6D2FFF704
:102260005DFF28700120FFF7FCFEFFF7DCFE70BD6C
:102270000E48026B01210A430263826B0A438263A8
:10228000074801680122920311430160016892101E
:102290001143016000207047808D5B00000000103A
:1022A0000020005000220050002100500040044057
:1022B00001B50121684600F047F808BD08B50021C6
:1022C00068460170012100F05EF86846007808BD9C
:1022D00010B5044602E0641CFFF7EAFF20780028EE
:1022E000F9D110BD10B5FFF7F3FF12A0FFF7F0FF13
:1022F00010BD10B5044610A0FFF7EAFF2009092819
:1023000001D9373000E03030FFF7D2FF2007000F4F
:10231000092801D9373000E03030FFF7C9FF10BD80
:1023200010B500F048F8C007C00F10BD10B5FFF79A
:10233000C6F910BD0A0D0000307800002048016881
:10234000C21491430160704770B500241D4A661E97
:1023500015E0334602E0002B13D05B1E5569AD0635
:10236000F9D5002B0DD0102506E003781360401C32
:10237000491E641C6D1E02D00029F6D101E000291F
:10238000E7D1204670BD70B500240E4B651E0EE0EF
:102390002A4602E0002A0CD0521E5E69F607F9D0E8
:1023A000002A06D01A680270401C491E641C0029CD
:1023B000EED1204670BD03484069C0B270470000AE
:1023C0008080044000800040F8B5042A2CD38307A5
:1023D00012D00B78491C0370401C521E83070BD08F
:1023E0000B78491C0370401C521E830704D00B78E5
:1023F000491C0370401C521E8B079B0F05D0C91A45
:10240000DF002023DE1B08C90AE0FDF7ABFEF8BDA4
:102410001D4608C9FD401C46B4402C4310C0121F85
:10242000042AF5D2F308C91A521EF0D40B78491CBD
:102430000370401C521EEAD40B78491C0370401CE8
:10244000012AE4D409780170F8BD01E004C0091F35
:102450000429FBD28B0701D50280801CC90700D05C
:102460000270704700290BD0C30702D00270401CD5
:10247000491E022904D3830702D50280801C891ECD
:10248000E3E70022EEE70022DFE70378C27819468F
:10249000437812061B0219438378C0781B04194342
:1024A00011430902090A000608437047020A08702E
:1024B0004A70020C8A70020ECA707047002203092B
:1024C0008B422CD3030A8B4211D300239C464EE04F
:1024D00003460B433CD4002243088B4231D303090B
:1024E0008B421CD3030A8B4201D394463FE0C309BD
:1024F0008B4201D3CB01C01A524183098B4201D3D5
:102500008B01C01A524143098B4201D34B01C01ABF
:10251000524103098B4201D30B01C01A5241C30837
:102520008B4201D3CB00C01A524183088B4201D3A6
:102530008B00C01A524143088B4201D34B00C01A92
:102540005241411A00D201465241104670475DE0A7
:10255000CA0F00D04942031000D34042534000222A
:102560009C4603098B422DD3030A8B4212D3FC22D3
:10257000890112BA030A8B420CD3890192118B4252
:1025800008D3890192118B4204D389013AD0921168
:1025900000E08909C3098B4201D3CB01C01A524123
:1025A00083098B4201D38B01C01A524143098B42EC
:1025B00001D34B01C01A524103098B4201D30B01D5
:1025C000C01A5241C3088B4201D3CB00C01A5241FA
:1025D00083088B4201D38B00C01A5241D9D24308E1
:1025E0008B4201D34B00C01A5241411A00D201461E
:1025F000634652415B10104601D34042002B00D588
:102600004942704763465B1000D3404201B5002049
:10261000C046C04602BD704770477047754600F01F
:1026200025F8AE46050069465346C008C0008546F9
:1026300018B020B5FDF79CFE60BC00274908B646DF
:102640000026C0C5C0C5C0C5C0C5C0C5C0C5C0C5C1
:10265000C0C5403D49008D46704710B50446C04690
:10266000C0462046FDF777FD10BD000000487047CA
:102670009406001001491820ABBEFEE726000200B8
:10268000704730B47446641E2578641CAB4200D297
:102690001D46635D5B00E31830BC18472908000045
:1026A000D11C000000000000ED1C00000000000034
:1026B00012010002EF020140C91F0B50000101028C
:1026C000030109025D00030100C03209040000009B
:1026D000FE01010409210F00FF40000001080B0169
:1026E000020202000509040100010202000505249E
:1026F0000010010524010102042402020524060140
:10270000020705810310001009040200020A0000FC
:102710000607050302400000070583024000000091
:1027200009021B00010200C0320904000000FE0182
:10273000020409210700FF4000000100040309040E
:1027400026034E00580050002000530065006D0025
:10275000690063006F006E00640075006300740020
:102760006F00720073002C034C00500043003100D6
:1027700031005500780078002000550053004200D9
:10278000200043006F006D0070006F00730069004F
:1027900074001A03440045004D004F003000300023
:1027A0003000300030003000300030001A034C00A0
:1027B00050004300310031005500780078002000BF
:1027C000440046005500120343004F004D002F0007
:1027D00044004100540041000A03560043004F00EA
:1027E0004D000A0600020000004000000C28000016
:1027F000000000107C000000040100008828000098
:102800007C0000107C08000020010000006CDC024D
:1028100000000000000000000000000000000000B8
:1028200000000000000000000000000000000000A8
:102830000000000000000000000000000000000098
:102840000000000000000000000000000000000088
:1028500000000000010000008025000000000800CA
:10286000000000000000000080BB000085000000A8
:102870000000000000DF0000FFFF0000000000007B
:0828800000000000C226000068
:04000005000000C136
:00000001FF
