:020000040000FA
:100000002006001025030000370300002D03000028
:1000100000000000000000000000000000000000E0
:100020000000000000000000000000002F0300009E
:100030000000000000000000310300003303000056
:1000400037030000370300003703000037030000C8
:1000500037030000370300003703000037030000B8
:1000600037030000370300003503000035030000AC
:10007000350300003503000037030000370300009C
:100080003703000037030000370300003703000088
:10009000370300005F110000B30B000037030000BE
:1000A0003703000037030000370300003703000068
:1000B000350300003503000037030000350300005E
:1000C00000F002F800F03EF80CA030C80838241800
:1000D0002D18A246671EAB4654465D46AC4201D180
:1000E00000F030F87E460F3E0FCCB6460126334274
:1000F00000D0FB1AA246AB4633431847AC1A0000A7
:10010000CC1A0000103A02D378C878C1FAD8520746
:1001100001D330C830C101D504680C6070470000BD
:100120000023002400250026103A01D378C1FBD813
:10013000520700D330C100D50B6070471FB51FBDFB
:1001400010B510BD01F0EBF91146FFF7F7FF01F014
:10015000EDF801F003FA03B4FFF7F2FF03BC01F07E
:1001600007FA000070B55C4D0020696AC905090FE7
:100170000B0001F03BFC1026090B0D0F1113151796
:10018000191B1D1F2123252654481AE0544818E046
:10019000544816E0544814E0544812E0544810E023
:1001A00054480EE054480CE054480AE0544808E033
:1001B000544806E0544804E0544802E0544800E043
:1001C0005448696AC906890E891C01F0F8F8424B47
:1001D0004033196B504A8907504C890F1ED00026B6
:1001E000012904D002290DD0032921D10CE018687F
:1001F0008007800F12D0012810D0022817D00328C2
:1002000016D114E0206013E018688007800F01D039
:100210000128F2D1A868C005800F01D0226007E054
:10022000A8683D49C006C00E401C4843EAE7266066
:10023000996B206801F0C3F8206070BDF8B5384AAA
:10024000906B202188439063234B00261E6200960A
:1002500000BF0098401C0090C828F9D31E48012117
:10026000403001604160466041604468E407FCD072
:1002700023279F60946B8025AC439463DC68E4077C
:10028000FCD003240463416346634163446BE40789
:10029000FCD08163946B0125AD02AC439463946BF5
:1002A000AD10AC4394638160C160C660C160C26838
:1002B000D207FCD01F615869C007FCD00648C03087
:1002C0000660466041608160034980310868012210
:1002D000120410430860F8BD0080044020A107000C
:1002E00000350C00E0C81000C05C1500006A180062
:1002F00040771B0080841E00C0912100009F2400D5
:1003000040AC2700E032290020402C00604D2F0037
:1003100000D4300040E13300001BB70000000010A3
:10032000008204400748804707480047FEE7FEE791
:10033000FEE7FEE7FEE7FEE704480549034A054BF2
:10034000704700003D020000C100000020040010C2
:100350002006001020040010AA48002181800170AE
:100360004170A94A0161C26041617047A54910B559
:100370002031002000F0E9FA10BD10B5A14C18346E
:10038000A288402A00D940228020216800F0A9FBE1
:10039000216809182160A188081AA08010BD10B535
:1003A000984C00201834216800F000FB21680918DF
:1003B0002160A188081AA08010BD10B50022114646
:1003C000802000F08EFB10BD10B59049002000F099
:1003D000EDFA10BDF8B58B4C0027183425460835CA
:1003E0002978884E030001F001FB083805BEFB3870
:1003F00038F0EF38FFF7BAFF2878C00900F0BEF9EF
:10040000E888A08028784106890F02D001297DD193
:1004100042E069780B0001F0E9FA0C070AA10CA18F
:10042000121A2123292C3CA101F01CF911E0002013
:1004300000E0012001F058F9002867D04DE0C00627
:10044000C00E63D1A87880210843307045E001F0E8
:1004500097F800285AD0FFF790FFF8BD00207EE003
:10046000C006C00E7AD16748401C10E001F08CF93C
:10047000E2E7C006C00E012870D1707800286DD068
:100480002879B178884269D25E49891D4018206078
:10049000E1E701F025FACFE7C006C00E5ED00128E3
:1004A0005CD12879594E002823D16878030001F0E7
:1004B0009DFA0C20070E1720202020200C111C2054
:1004C00000F0FAFB0EE02660C5E72660F8BD00F0FC
:1004D0001BFC07E000F020FC09E0FFF76EFFF8BD11
:1004E00000F021FC0028EED103E000F023FC0028FE
:1004F000F3D12879012801D002282FD16878042867
:100500001BD00ADC0028E0D0012800E01DE00DD05F
:100510000228DAD0032821D10BE02028D5D02128C9
:100520000FD0222812D0232818D113E000F09AFC13
:1005300009E0688800F09AFC05E0688800F098FC03
:100540004BE000F0BBFC0028BDD107E0688800F05C
:10055000CCFC42E0688800F0CAFC3EE0802000F05D
:1005600081F9A780F8BDC80902D0FFF72DFFF8BDBB
:10057000A0880028FBD0FFF712FFA0880028F6D142
:1005800028784106890FE9D00129E7D1C006C00EBD
:10059000E4D00128E2D12879002806D1687809281A
:1005A000DCD100F09DFB002897D12879012801D0EB
:1005B0000228D3D16878002809D002280AD0202840
:1005C000CCD100F057FC08E018E015E008E000F09E
:1005D00047FC02E0688800F047FC0028BED07CE7BA
:1005E000C80900D037E730780106C0D54006400E74
:1005F000307000F0AFF8F8BD002000E0802000F07F
:100600005FF9F8BD04000010010001005C0000105B
:10061000FB4801684022114301600168F94A114317
:100620000160F948C16849094901C160C2680121F6
:100630000A43C2608269D208D200826182690A4399
:100640008261704710B5F14C00F025FBC000001925
:1006500010BDF0B5EE49ED488860EE4AC303CB60AB
:10066000ED490160011DED48026040224260FF2219
:1006700006320A60E74B0A1D4033082183600346B7
:10068000D960E449E44B80319B1C13600161402137
:1006900002465161DF49DD4AC03110328161DF49D4
:1006A0004020C8610423DE48DC4C022185022E0C68
:1006B000DC4D75191560DD00605140262D196E6006
:1006C00085198702B602BE19370CD64EBE195B1CBF
:1006D0005660DE00A5514025361975608030491CF2
:1006E00008325B1C0A29E1D3F0BD10B5CE480024C6
:1006F00004604460FFF7ADFFC54884614461016850
:10070000802211430160C9490162416210BD00B5F8
:10071000FFF77EFF0120C64980050860FFF7E5FF6F
:1007200000BD0122BA4912040028086801D0104314
:1007300000E090430860704770477047BD480078FC
:10074000800705D5B2480168012252049143016037
:1007500070477047AE490A68D209D2010A600A6838
:100760008023184302430A607047A949002801D03A
:10077000AE4800E0B048486270477047704710B517
:1007800000F089FA0121A24A814050690843506172
:1007900050690842FCD1116210BDF8B50646FFF75A
:1007A00051FF044600680125AD07A84320603107CA
:1007B00020D03106012700290ADA304600F06BFA12
:1007C00087409348C069074214D06068A84310E08E
:1007D0000121C90708432060304600F05CFA8740D9
:1007E0008B48C069074205D060680121A843C9074A
:1007F00008436060F8BD70B50646FFF723FF044666
:10080000300711D001252068AD072843206030460D
:1008100000F041FA0146012088407D49C96908423B
:1008200002D060682843606070BD70B50546FFF770
:1008300009FF044600680121490788432060606879
:1008400088436060284600F026FA01218140704804
:100850008069014200D0241D012120680907084356
:10086000206070BD70B506460007744D30461AD042
:10087000FFF7E8FE04460068002802DA3046FFF77A
:100880007EFF206828432060304600F004FA0146CD
:10089000012088405E49C96908420CD06068241D67
:1008A000002809DB04E0FFF7CDFE04460068F7E707
:1008B00020682843206070BD3046FFF760FFF7E7EF
:1008C000F8B5054600075D4E284621D0FFF7BAFE71
:1008D00004460068B04320606068B043606028460A
:1008E00000F0D9F901460126304688404849896917
:1008F000084200D0241D0121206809070843206018
:1009000029060BD44E4908404E4908432060F8BDE3
:10091000FFF798FE0168B1430160F8BD284600F07A
:10092000BAF901463046404F884079680842F4D011
:1009300001212068C90708432060284600F0ABF970
:1009400086407868B0437860F8BDFEB50F46FFF783
:1009500079FE04460068810002D4A168890005D5AB
:10096000364988432060A0688843A0600820009032
:100970002A48856800980026C01C8008019007E07E
:100980003946286800F013FD2D1D761C01983F1D87
:10099000B042F5D860682149000C000460608968A5
:1009A0008902090C084360600098FEBDF3B585B06C
:1009B0000598FFF747FE0446059800F06CF94500DE
:1009C000059800070AD0059800F065F901218140DB
:1009D00015480068014201D0241D6D1C20680F4B92
:1009E0008001820DE800C118029103904968891ABC
:1009F00000911E580027C91C880801902EE00000B5
:100A00008080044000400008004004400040002076
:100A10000000084000410020040140009C0000103C
:100A200000420020000040402C000010FF0300C0E6
:100A300000E100E008000010030000C000000020FA
:100A4000FFFF00FC000040803068069900F0AFFC1A
:100A50000698361D001D069001987F1CB842F3D8F9
:100A60002068800E800620600599090716D0059839
:100A700000F011F901273E4686408A48C1690E42BE
:100A80001DD08069884E3060059800F004F98740D9
:100A90003068074211D0241D6D1C10E0029A834972
:100AA000526812041043039A895889020A0C0121E2
:100AB000C9070A431043206010E0241F6D1E7B49C4
:100AC000E800431822685B6808581B041A43800238
:100AD000000C0121C907084302432260009807B0B7
:100AE000F0BDF7B582B00F460298FFF7ABFD0446A4
:100AF000029800F0D0F84500029800072CD0029828
:100B000000F0C9F801460126304688406549C969A8
:100B1000084209D0029800F0BEF88640614880691A
:100B2000064201D0241D6D1C2068604B800E80069B
:100B3000206004998905890D0A040491E9005D5833
:100B4000AD022D0C2A43024322605D580499002611
:100B5000C91C880800900EE0204680380122816F71
:100B6000D20711438167DFE7384600F00FFC01C56B
:100B7000761C00983F1DB042F6D8206881000CD545
:100B80000299090709D0029800F085F801218140F7
:100B9000454842681143416003E00121C907084309
:100BA0002060049805B0F0BD3E4840684005400D07
:100BB0007047F8B53B4E356A3562002D19DA346856
:100BC000600107D53068F10108433060FFF78DFD03
:100BD00000F00AFBE00104D5306801210906084352
:100BE0003060A00104D53068012149060843306017
:100BF000F8BD680005D500F0FBFA2B488168491C58
:100C00008160A805F4D02A4F00240120A04028428A
:100C100008D06008E10709D080003958002901D0C8
:100C200003208847641C0A2CEFD3F8BD002C0DD19B
:100C30003168C9050AD53968002907D001208847DD
:100C40003068FF21013108433060EBE780003958FC
:100C50000029E7D00220E4E7F1B501251548AE05EB
:100C60002F4606600098FFF7EDFC04460098000749
:100C700008D0009800F00FF887400A4880690742C2
:100C800000D0241D2068002800DA0025094880389B
:100C900006602846F8BD01460007C00E090600D5CB
:100CA000401C7047000008402C0000109C00001001
:100CB000941B000080E100E010B52248C0780128B4
:100CC00004D002280AD0032806D107E000F0BCFABD
:100CD0001D481E4900780870012010BD002010BD7D
:100CE00010B51848C07801280CD0022802D003287B
:100CF00006D107E0154816490078087000F0B5FAEB
:100D0000012010BD002010BD0E4812498078085CFB
:100D10000E490870012070470A480E4AC178807851
:100D20001154012070470B480849401E0078087094
:100D300001207047034807498078491E0870012048
:100D40007047000024000010560000105C000010E6
:100D5000580000103900001030B502460868914B69
:100D600004461946803108E00D796D066D0E5D5D13
:100D700015704D686D1C521C4D60401EF4D220460B
:100D800030BD70B502460868864B0446194680316E
:100D900009E00E7815787606760E9D550D68401E92
:100DA0006D1C521C0D600028F3D1204670BD7D499A
:100DB00080310A780979511A4906490E01600020EC
:100DC000704738B5784C00202080684600F0C1F9A3
:100DD00068460088010403D521880122114321803F
:100DE000810403D52188022211432180C10603D545
:100DF0002188042211432180410403D5218808223F
:100E000011432180010703D521881022114321803D
:100E1000410703D52188202211432180800703D573
:100E20002088402108432080208838BD10B500F07C
:100E3000BFF85D48801D00F0A9FA5B49891D0B7958
:100E40004A79897900F0DEF8574C01206080FFF77D
:100E5000B8FF20805348002180300160416010BD00
:100E60000120704701207047012070470120704722
:100E70000120704770B54D4800F088FA4B4D0002D4
:100E8000E978000A090608434749891D00F08FFAEE
:100E9000454C2879A41D207168796071A879A071EA
:100EA00000F0A0F800F084F8204600F06FFA2379F3
:100EB0006279A17900F0A6F8012070BD3A4810B51A
:100EC000801D00F063FA3949020A08704A70020C6A
:100ED0008A70000EC8703448801D02790A71427908
:100EE0004A7180798871012010BD0120704701206E
:100EF000704708B5684600F018F92A4869468C38EA
:100F000000F0D0F8021E05DD264983208C39FFF75A
:100F1000E8FD08BD24490120488008BD214808B5E6
:100F2000803001780079081A4006400E8021081AA6
:100F3000402803D81C490120888008BD1949032096
:100F40004C39FFF733FD0090164869464C38FFF7DF
:100F500018FF08BD14498888002807D01148803040
:100F600005C8824202D100208880D7E770470D482B
:100F700010B5A1210C380170202141700021817031
:100F8000C1700171417102228271C17106490A2248
:100F900009880172090A417201468120FFF7A1FD0B
:100FA00010BD0000C80100103A0000105C000010E5
:100FB0000121864A4805106085488268D208D2001F
:100FC000826082680A438260C268D208D200C2602E
:100FD000C2680A43C2607F4802680B031A4302607A
:100FE000816170477A488168C908C9008160C16819
:100FF000C908C900C1607849002048608801734968
:1010000008607047FFB581B005293BD006293BD069
:1010100007293BD00325012B3AD0022B38D00026DC
:10102000012A37D0022A37D0032A37D0042A37D0F2
:1010300000246A48002707604760883007604760DF
:10104000644881696648006800F0B9F900090199AF
:1010500000F0B5F960498F622543354380222A4369
:10106000CA600860000A4860CD600320486007201D
:1010700088605C4901204860544940058039086017
:1010800005B0F0BD0025C6E70125C4E70225C2E78B
:101090000426C5E70824CCE71824CAE72824C8E7B3
:1010A0003824C6E770B54D4A0346086888321546AD
:1010B0000446803D0BE016685168B142FDD0491CE2
:1010C0005160491E4906490E695C19705B1C401E3F
:1010D000F1D2204670BD70B5404D02460868803D93
:1010E000294680310C684B680646A342FDD109E0D1
:1010F0000C7813786406640E2B550B68401E5B1C3D
:10110000521C0B600028F3D136484268002A0AD0EE
:10111000002242604868401C4860401E4006400E65
:101120002D49285C0860304670BD2C4A8832117801
:1011300012798B1A491C5B06520649065B0E520E49
:10114000490E8A4201D1012100E000210B430360D6
:10115000704724490A88028000200880704718B52B
:101160001D4988680090400703D400980007800F4D
:101170000FD01A4B0833184680304A69D20708D07E
:101180000A6804786406640E1A550268521C0260EC
:10119000F3E70098134B800712D510480478426893
:1011A000A41A64060AD0521C4260521E50060B4A12
:1011B000400E803A105C0860002000E0012058607A
:1011C00048691E210840188018BD000080E100E039
:1011D000404004408080044000800040D002001065
:1011E000000000104800001010B5FFF7B5F810BD62
:1011F00010B5FFF7AFFE10BD10B5032808D1FFF7FB
:10120000E0FD0F490A88824202D00880FFF7AFFE56
:1012100010BD704710B5022804D0032801D1FFF794
:1012200068FE10BDFFF77AFE10BD10B5022805D18B
:1012300004490420FFF7BAFB00F017F810BD0000C6
:10124000540000105800001049480021017049491D
:101250000A68D20301D4012202700968890303D409
:101260000178022211430170704742484168FF2211
:10127000D2049143416041683D4A9278D2041143BF
:101280004160704710B53C480078002810D0842099
:10129000FFF7E2FC00280BD0FFF7D6FF34494A786D
:1012A0000878824204D0487001228420FFF719FC9C
:1012B00010BD10B5FFF7BAFD10BD38B56846FFF791
:1012C00034FF009800280EDD2C4C208800280AD01E
:1012D00069462B48FFF7E6FE024600202080284999
:1012E0008320FFF7FEFB38BD0EB502A8FFF75FFDB8
:1012F000029800280EDD202800DD202000902048E4
:1013000069464030FFF728FD01901D4801A9403093
:10131000FFF7E1FE0EBD10B5FFF753FD14498A88B3
:10132000824202D08880FFF722FE10BDFEF71AFF2E
:1013300014484168FF22D2041143416012494B68AE
:1013400013434B6001680322120491430160FFF7CD
:101350006DFDFFF7DCF90120FFF7E3F9FFF792FFDE
:10136000FFF7ABFFFFF7D7FFFFF7BEFFF6E7000081
:101370005600001000210050050000103C00001035
:101380006003001000200050802200500378C278D3
:101390001946437812061B0219438378C0781B0450
:1013A000194311430902090A000608437047020A5B
:1013B00008704A70020C8A70020ECA7070470022D0
:1013C00003098B422CD3030A8B4211D300239C4682
:1013D0004EE003460B433CD4002243088B4231D3FA
:1013E00003098B421CD3030A8B4201D394463FE08E
:1013F000C3098B4201D3CB01C01A524183098B42EE
:1014000001D38B01C01A524143098B4201D34B01D6
:10141000C01A524103098B4201D30B01C01A524139
:10142000C3088B4201D3CB00C01A524183088B42C0
:1014300001D38B00C01A524143088B4201D34B00A9
:10144000C01A5241411A00D201465241104670471B
:101450005DE0CA0F00D04942031000D34042534020
:1014600000229C4603098B422DD3030A8B4212D3E0
:10147000FC22890112BA030A8B420CD38901921112
:101480008B4208D3890192118B4204D389013AD04F
:10149000921100E08909C3098B4201D3CB01C01A24
:1014A000524183098B4201D38B01C01A5241430937
:1014B0008B4201D34B01C01A524103098B4201D325
:1014C0000B01C01A5241C3088B4201D3CB00C01A92
:1014D000524183088B4201D38B00C01A5241D9D2AA
:1014E00043088B4201D34B00C01A5241411A00D22B
:1014F0000146634652415B10104601D34042002B27
:1015000000D54942704763465B1000D3404201B5A5
:101510000020C046C04602BD704770477047754600
:1015200000F022F8AE46050069465346C008C000E8
:10153000854618B020B5FEF7FFFE60BC00274908BD
:10154000B6460026C0C5C0C5C0C5C0C5C0C5C0C55B
:10155000C0C5C0C5403D49008D4670470446C046E1
:10156000C0462046FEF7F7FD00487047C003001054
:1015700001491820ABBEFEE72600020070470000BC
:1015800030B530482F490078C978C2062E482F4B15
:101590000068D20E02D0012A48D138E0012908D0D3
:1015A000284A0229947808D003291CD006293DD165
:1015B00029E02748186012203EE0002108E0027868
:1015C000002A04D0C278857812022A431018491CD8
:1015D0008C42F4D10178002928D01860C178827833
:1015E0000802104328E01B48002104E00278002A8A
:1015F00000D01018491C8C42F8D10178002915D070
:101600001860007818E0144818600A2014E00D4AA9
:101610002129127902D0222908D105E0002A05D11A
:1016200012301860092007E0002A01D0002030BDE8
:101630000A4818600A4800889988814200D9988031
:10164000012030BD24000010500000101C000010CC
:10165000341A0000B21A00008A1B0000061A0000AB
:10166000321A000070B51D481D4B0078C106C90E26
:101670000AD01D461948183D1A4C6A78007901298C
:1016800006D0022928D10AE015481438186021E054
:10169000002A21D0A97888421ED2002016E08F218E
:1016A0000840010605D50607360F01210904B1409F
:1016B00001E001218140002A01D100070CD1E86836
:1016C000084209D02869084000D001202070000A93
:1016D00060701C60012070BD002070BD24000010EF
:1016E0001C0000105C00001070B5254B02461878F5
:1016F0001946C0064988234DC00E04D001282BD0BE
:10170000022829D111E0012926D10224002A05D07E
:101710000120FFF71EF8A888204304E00020FFF70F
:1017200018F8A888A043A88027E018798F231840CC
:10173000030605D503071B0F012424049C4001E088
:10174000012484406B78002B06D0030704D0EB689B
:10175000234201D0002901D0002070BD002A04D00E
:10176000FFF780F82869204306E06969214204D127
:10177000FFF7A6F82869A0432861012070BD00008A
:101780002400001004000010F8B55248002601782B
:10179000C906C90E72D14F4F8078203F00286FD004
:1017A0004D48046866E06078022804D0042842D0DE
:1017B00005285DD141E0474861798078814235D183
:1017C00078702079B870434900201A3900220A54F1
:1017D000401C0328FAD301250120F968A8400842DB
:1017E00002D02846FFF707F801200004F968A84056
:1017F000084204D0284680210843FEF7FCFF6D1CF8
:10180000052DE9D33548F8600020386178613D4600
:101810000120FEF7AAFFE0794006A88802D5012141
:10182000084301E040084000A88021E0E078A1786A
:10183000000208431DE0E6781AE0002E18D1A578D2
:101840008F200540280605D52907090F012000042F
:10185000884001E00120A840F96801432046F96072
:10186000FEF78BFF2846FEF798FF2846FEF7DDFFC0
:10187000207804192078002895D121E025E0FFE7A1
:10188000002501247D7080260120F968A0400842CF
:1018900002D02046FEF7AFFF01200004F968A04007
:1018A000084203D020463043FEF7A5FF641C052CF8
:1018B000EAD33D6109487D61F8600020FEF755FFDD
:1018C000044879788078884201D00020F8BD012052
:1018D000F8BD0000240000105000001001000100BD
:1018E000F0B585B000273F480397019700783E4642
:1018F000C006C00E012802D0002005B0F0BD394856
:10190000203840780028F8D000200290364804683B
:1019100062E06078022804D004280DD0052859D14F
:101920001DE03048617920384078814252D0E0781B
:10193000A178000208434EE0A778E67800200190E5
:1019400028480179B94245D18078B04242D101207E
:10195000029024481A38C15D0391C6553AE02149E6
:101960000879B84236D1A0788F2210400090000646
:10197000009804D50007000F01252D0400E0012583
:1019800085408878B04214D116482038C168294370
:10199000C1600169A94301612046FEF7EEFE00988F
:1019A000FEF7FBFE0098FEF740FF019828430190E8
:1019B00010E0039886420DD1019828420AD10948C7
:1019C0002038C168A943C1600169A9430161009839
:1019D000FEF711FF207804192078002899D1029889
:1019E0008BE70000240000105000001030B4744653
:1019F000641E2578641CAB4200D21D46635D5B000B
:101A0000E31830BC18470600FF0901A101050919B8
:101A100001290215002501950275018102950175C4
:101A20000681010508094B150025019508750191EE
:101A300002C02C0012010002EF020140C91F0B106E
:101A400000010102030109026B00030100C0320919
:101A50000400000203000004092100010001222CFF
:101A60000007058403040020070504030400200880
:101A70000B01020202000609040100010202000635
:101A8000052400100105240101020424020205249A
:101A90000601020705810310001009040200020A72
:101AA000000007070503024000000705830240000D
:101AB00000000403090426034E00580050002000D3
:101AC000530065006D00690063006F006E006400E4
:101AD0007500630074006F00720073002C034C00EB
:101AE000500043003100310055007800780020009C
:101AF000550053004200200043006F006D0070004D
:101B00006F007300690074001A03440045004D0023
:101B10004F00300030003000300030003000300026
:101B200030001A034C0050004300310031005500D2
:101B300078007800200048004900440020034C0051
:101B4000500043003100310055007800780020003B
:101B50004D0065006D006F007200790012034300B4
:101B60004F004D002F0044004100540041001C0371
:101B70004C005000430031003100550078007800DF
:101B80002000560043004F004D000A0600020000EE
:101B900000400000D5030000F91100000000000023
:101BA000151200002B120000C81B000000000010DE
:101BB0005C00000004010000241C00005C00001018
:101BC000C405000020010000006CDC0200000000E1
:101BD0000000000000000000000000000000000005
:101BE00000000000000000000000000000000000F5
:101BF00000000000000000000000000000000000E5
:101C00000000000001000000802500000000080026
:101C10000000000000000000461A00000000000064
:041C200000000000C0
:04000005000000C136
:00000001FF
