:020000040000FA
:10000000A00E001025030000370300002D030000A0
:1000100000000000000000000000000000000000E0
:100020000000000000000000000000002F0300009E
:100030000000000000000000310300003303000056
:1000400037030000370300003703000037030000C8
:1000500037030000370300003703000037030000B8
:1000600037030000370300003503000035030000AC
:10007000350300003503000037030000370300009C
:100080003703000037030000370300003703000088
:1000900037030000631C0000371000003703000026
:1000A0003703000037030000370300003703000068
:1000B000350300003503000037030000350300005E
:1000C00000F002F800F03EF80CA030C80838241800
:1000D0002D18A246671EAB4654465D46AC4201D180
:1000E00000F030F87E460F3E0FCCB6460126334274
:1000F00000D0FB1AA246AB463343184790310000AC
:10010000B0310000103A02D378C878C1FAD852074B
:1001100001D330C830C101D504680C6070470000BD
:100120000023002400250026103A01D378C1FBD813
:10013000520700D330C100D50B6070471FB51FBDFB
:1001400010B510BD01F085FF1146FFF7F7FF01F074
:100150003FFE01F09DFF03B4FFF7F2FF03BC01F087
:10016000A3FF000070B55C4D0020696AC905090F46
:100170000B0001F0A0FF1026090B0D0F111315172E
:10018000191B1D1F2123252654481AE0544818E046
:10019000544816E0544814E0544812E0544810E023
:1001A00054480EE054480CE054480AE0544808E033
:1001B000544806E0544804E0544802E0544800E043
:1001C0005448696AC906890E891C01F092FE424BA7
:1001D0004033196B504A8907504C890F1ED00026B6
:1001E000012904D002290DD0032921D10CE018687F
:1001F0008007800F12D0012810D0022817D00328C2
:1002000016D114E0206013E018688007800F01D039
:100210000128F2D1A868C005800F01D0226007E054
:10022000A8683D49C006C00E401C4843EAE7266066
:10023000996B206801F05DFE206070BDF8B5384A0A
:10024000906B202188439063234B00261E6200960A
:1002500000BF0098401C0090C828F9D31E48012117
:10026000403001604160466041604468E407FCD072
:1002700023279F60946B8025AC439463DC68E4077C
:10028000FCD003240463416346634163446BE40789
:10029000FCD08163946B0125AD02AC439463946BF5
:1002A000AD10AC4394638160C160C660C160C26838
:1002B000D207FCD01F615869C007FCD00648C03087
:1002C0000660466041608160034980310868012210
:1002D000120410430860F8BD0080044020A107000C
:1002E00000350C00E0C81000C05C1500006A180062
:1002F00040771B0080841E00C0912100009F2400D5
:1003000040AC2700E032290020402C00604D2F0037
:1003100000D4300040E13300001BB70000000010A3
:10032000008204400748804707480047FEE7FEE791
:10033000FEE7FEE7FEE7FEE704480549034A054BF2
:10034000704700003D020000C1000000A00C00103A
:10035000A00E0010A00C0010FB480021818001704D
:100360004170FA4AC160826001617047F64910B578
:100370002031002000F02BFD10BD10B5F24C1834D8
:10038000A288402A00D940228020216800F0EBFD9D
:10039000216809182160A188081AA08010BD10B535
:1003A000E94C00201834216800F042FD216809184A
:1003B0002160A188081AA08010BD10B50022114646
:1003C000802000F0D0FD10BD10B5E149002000F004
:1003D0002FFD10BD70B5DC48DE4B20300078C10623
:1003E000C90E0AD0D84D18460830D94C6A78007921
:1003F000012906D0022928D10AE0D348001D18603F
:1004000021E0002A21D0A97888421ED2002016E0DF
:100410008F210840010605D50607360F0121090482
:10042000B14001E001218140002A01D100070CD137
:10043000A868084209D0E868084000D00120207070
:10044000000A60701C60012070BD002070BD70B596
:10045000C04B0246083318781946C0064988BA4D81
:10046000C00E04D001282BD0022829D111E0012987
:1004700026D10224002A05D0012000F0ACFBA88878
:10048000204304E0002000F0A6FBA888A043A88039
:1004900027E018798F231840030605D503071B0FA3
:1004A000012424049C4001E0012484406B78002B4B
:1004B00006D0030704D0AB68234201D0002901D045
:1004C000002070BD002A04D000F00EFCE868204334
:1004D00006E02969214204D100F034FCE868A04319
:1004E000E860012070BD30B59A489C49083000781A
:1004F000C978C2069848974B0068D20E02D0012AEC
:1005000048D138E0012908D0944A0229947808D0CB
:1005100003291CD006293DD129E0914818601220FA
:100520003EE0002108E00278002A04D0C2788578F5
:1005300012022A431018491C8C42F4D10178002978
:1005400028D01860C17882780802104328E08548D6
:10055000002104E00278002A00D01018491C8C42C7
:10056000F8D10178002915D01860007818E07E488D
:1005700018600A2014E0794A2129127902D0222930
:1005800008D105E0002A05D112301860092007E0E3
:10059000002A01D0002030BD7448186074480088DB
:1005A0009988814200D99880012030BDF8B56B4808
:1005B00000260178C906C90E71D18078624F0028E3
:1005C0006FD06548046866E06078022804D004288B
:1005D00042D005285DD141E0604861798078814250
:1005E00035D178702079B8705A490020091F00224F
:1005F0000A54401C0428FAD301250120B968A840F8
:10060000084202D0284600F038FB01200004B968F7
:10061000A840084204D028468021084300F02DFB62
:100620006D1C052DE9D34948B8600020F860386199
:100630003D46012000F0DBFAE0794006A88802D5AB
:100640000121084301E040084000A88021E0E07853
:10065000A178000208431DE0E6781AE0002E18D1C8
:10066000A5788F200540280605D52907090F012008
:100670000004884001E00120A840B96801432046F9
:10068000B96000F0BCFA284600F0C9FA284600F02C
:100690000EFB207804192078002895D121E025E070
:1006A000FFE7002501247D7080260120B968A04065
:1006B000084202D0204600F0E0FA01200004B968A8
:1006C000A040084203D02046304300F0D6FA641C14
:1006D000052CEAD3FD601D483D61B860002000F0A4
:1006E00086FA1E4879788078884201D00020F8BDCB
:1006F0000120F8BDF0B585B0002718480397019791
:1007000000783E46C006C00E012802D0002005B089
:10071000F0BD0D4840780028F9D0002002900E4826
:10072000046877E06078022804D0042822D00528E5
:100730006ED132E0044861794078814268D0E07837
:10074000A1780002084364E00400001001000100E9
:100750006C0000101C000010680000102400001045
:1007600014310000A931000081320000E4300000A3
:1007700010310000A778E67800200190C348017985
:10078000B94245D18078B04242D101200290BF48A1
:100790000C38C15D0391C6553AE0BC490879B842AE
:1007A00036D1A0788F22104000900006009804D522
:1007B0000007000F01252D0400E001258540887801
:1007C000B04214D1B1482038816829438160C168A2
:1007D000A943C160204600F012FA009800F01FFA09
:1007E000009800F064FA01982843019010E0039803
:1007F00086420DD1019828420AD1A4482038816848
:10080000A9438160C168A943C160009800F035FA2E
:10081000207804192078002884D1029877E7F8B569
:100820009A4C9A4D083C264600272978183E03002A
:1008300001F041FC083805DBFE3838FDFC38FFF7D5
:1008400095FD2878C00900F0DBF9E888A0802878B9
:100850004106890F02D001297ED142E069780B0060
:1008600001F029FC0C070ABE0CBE121A2123292C08
:100870003CBEFFF7AFFD11E0002000E00120FFF7D4
:10088000E6FD002868D04DE0C006C00E64D1A8780F
:1008900080210843307045E0FFF725FE00285BD03B
:1008A000FFF76BFDF8BD00209BE0C006C00E53D1E2
:1008B00076481F3810E0FFF779FEE2E7C006C00E69
:1008C000012849D17078002846D02879B17888422B
:1008D00042D26E490C3940182060E1E7FFF70AFF69
:1008E000CFE7C006C00E7BD0012879D12879684EA9
:1008F000002823D16878030001F0DDFB0C20070EEF
:100900001720202020200C111C2000F043FD0EE0B9
:100910002660C5E72660F8BD00F064FD07E000F042
:1009200069FD09E0FFF749FDF8BD00F06AFD002808
:10093000EED103E000F06CFD0028F3D12879032804
:100940001BD16878FE280ED0FF2849D1688800287E
:1009500046D1E888002800E039E041D100F07DFD73
:100960000028DFD109E06888002839D1E88801280B
:1009700036D100F07EFD0028CAD12879012801D0A7
:1009800002282DD16878042819D008DC0028C1D0AD
:1009900001280DD00228BDD0032821D10BE020284A
:1009A000B8D021280FD0222812D0232818D113E044
:1009B00000F04AFC09E0688800F04AFC05E068881D
:1009C00000F048FC4CE000F06BFC0028A0D107E0F0
:1009D000688800F07CFC43E0688800F07AFC3FE027
:1009E000802000F081F9A780F8BDC80902D0FFF788
:1009F000EBFCF8BDA0880028FBD0FFF7D0FCA08856
:100A00000028F6D128784106890FE9D00129E7D1DD
:100A1000C006C00EE4D00128E2D1287900280AD10E
:100A200068780928DCD100F0C9FC02E029E026E062
:100A300019E0002895D12879012801D00228CFD1CA
:100A40006878002806D0022807D02028C8D100F0F6
:100A500003FC05E000F0F6FB02E0688800F0F6FB1E
:100A60000028BDD05EE7C80900D019E7307801063C
:100A7000BFD54006400E307000F0AEF8F8BD002043
:100A800000E0802000F05EF9F8BD000024000010B6
:100A90006C000010FB4801684022114301600168AE
:100AA000F94A11430160F948C16849094901C16027
:100AB000C26801210A43C2608269D208D200826101
:100AC00082690A438261704710B5F14C00F025FB42
:100AD000C000001910BDF0B5EE49ED488860EE4A3F
:100AE000C303CB60ED490160011DED480260402267
:100AF0004260FF2206320A60E74B0A1D403308219C
:100B000083600346D960E449E44B80319B1C136049
:100B10000161402102465161DF49DD4AC031103296
:100B20008161DF494020C8610423DE48DC4C02219A
:100B300085022E0CDC4D75191560DD0060514026D4
:100B40002D196E6085198702B602BE19370CD64E74
:100B5000BE195B1C5660DE00A55140253619756034
:100B60008030491C08325B1C0A29E1D3F0BD10B566
:100B7000CE48002404604460FFF7ADFFC54884619F
:100B800044610168802211430160C94901624162E8
:100B900010BD00B5FFF77EFF0120C6498005086043
:100BA000FFF7E5FF00BD0122BA49120400280868DA
:100BB00001D0104300E090430860704770477047D1
:100BC000BD480078800705D5B2480168012252046B
:100BD0009143016070477047AE490A68D209D2015B
:100BE0000A600A688023184302430A607047A949D3
:100BF000002801D0AE4800E0B04848627047704716
:100C0000704710B500F089FA0121A24A814050696D
:100C10000843506150690842FCD1116210BDF8B51B
:100C20000646FFF751FF044600680125AD07A843BB
:100C30002060310720D03106012700290ADA30462A
:100C400000F06BFA87409348C069074214D060688F
:100C5000A84310E00121C90708432060304600F096
:100C60005CFA87408B48C069074205D06068012163
:100C7000A843C90708436060F8BD70B50646FFF792
:100C800023FF0446300711D001252068AD07284313
:100C90002060304600F041FA0146012088407D493D
:100CA000C969084202D060682843606070BD70B5B1
:100CB0000546FFF709FF04460068012149078843FC
:100CC0002060606888436060284600F026FA0121B1
:100CD000814070488069014200D0241D01212068B4
:100CE00009070843206070BD70B506460007744DC3
:100CF00030461AD0FFF7E8FE04460068002802DA02
:100D00003046FFF77EFF206828432060304600F021
:100D100004FA0146012088405E49C96908420CD0A6
:100D20006068241D002809DB04E0FFF7CDFE0446BF
:100D30000068F7E720682843206070BD3046FFF761
:100D400060FFF7E7F8B5054600075D4E284621D05D
:100D5000FFF7BAFE04460068B04320606068B04305
:100D60006060284600F0D9F90146012630468840E7
:100D700048498969084200D0241D012120680907DB
:100D80000843206029060BD44E4908404E490843C9
:100D90002060F8BDFFF798FE0168B1430160F8BD1F
:100DA000284600F0BAF901463046404F884079683D
:100DB0000842F4D001212068C90708432060284672
:100DC00000F0ABF986407868B0437860F8BDFEB5B6
:100DD0000F46FFF779FE04460068810002D4A1683F
:100DE000890005D5364988432060A0688843A06003
:100DF000082000902A48856800980026C01C8008BA
:100E0000019007E03946286801F06BF82D1D761C2B
:100E100001983F1DB042F5D860682149000C0004DC
:100E2000606089688902090C084360600098FEBD13
:100E3000F3B585B00598FFF747FE0446059800F026
:100E40006CF94500059800070AD0059800F065F98F
:100E50000121814015480068014201D0241D6D1C0C
:100E600020680F4B8001820DE800C11802910390A9
:100E70004968891A00911E580027C91C88080190EA
:100E80002EE0000080800440004000080040044044
:100E90000040002000000840004100200401400004
:100EA000AC00001000420020000040402C00001068
:100EB000FF0300C000E100E008000010030000C0D4
:100EC00000000020FFFF00FC000040803068069911
:100ED00001F007F80698361D001D069001987F1C4A
:100EE000B842F3D82068800E800620600599090773
:100EF00016D0059800F011F901273E4686408A4831
:100F0000C1690E421DD08069884E3060059800F09E
:100F100004F987403068074211D0241D6D1C10E091
:100F2000029A8349526812041043039A895889022D
:100F30000A0C0121C9070A431043206010E0241F56
:100F40006D1E7B49E800431822685B6808581B0443
:100F50001A438002000C0121C907084302432260A2
:100F6000009807B0F0BDF7B582B00F460298FFF7C2
:100F7000ABFD0446029800F0D0F845000298000747
:100F80002CD0029800F0C9F801460126304688406E
:100F90006549C969084209D0029800F0BEF8864048
:100FA00061488069064201D0241D6D1C2068604B99
:100FB000800E8006206004998905890D0A04049139
:100FC000E9005D58AD022D0C2A43024322605D58B2
:100FD00004990026C91C880800900EE0204680383D
:100FE0000122816FD20711438167DFE7384600F0A5
:100FF00067FF01C5761C00983F1DB042F6D82068F7
:1010000081000CD50299090709D0029800F085F8F3
:1010100001218140454842681143416003E00121BC
:10102000C90708432060049805B0F0BD3E484068F9
:101030004005400D7047F8B53B4E356A3562002DCE
:1010400019DA3468600107D53068F101084330606F
:10105000FFF78DFD00F0FAFEE00104D530680121B4
:10106000090608433060A00104D530680121490613
:1010700008433060F8BD680005D500F0EBFE2B4852
:101080008168491C8160A805F4D02A4F0024012002
:10109000A040284208D06008E10709D080003958F4
:1010A000002901D003208847641C0A2CEFD3F8BD27
:1010B000002C0DD13168C9050AD53968002907D03F
:1010C000012088473068FF21013108433060EBE799
:1010D000800039580029E7D00220E4E7F1B5012566
:1010E0001548AE052F4606600098FFF7EDFC044654
:1010F0000098000708D0009800F00FF887400A48D1
:101100008069074200D0241D2068002800DA0025ED
:101110000948803806602846F8BD01460007C00E21
:10112000090600D5401C7047000008402C00001044
:10113000AC000010D030000080E100E030B5024685
:101140000868914B04461946803108E00D796D0618
:101150006D0E5D5D15704D686D1C521C4D60401E1E
:10116000F4D2204630BD70B502460868864B04466E
:101170001946803109E00E7815787606760E9D5571
:101180000D68401E6D1C521C0D600028F3D12046D6
:1011900070BD7D4980310A780979511A4906490E96
:1011A00001600020704738B5784C002020806846E8
:1011B00000F051FD68460088010403D52188012212
:1011C00011432180810403D521880222114321800B
:1011D000C10603D52188042211432180410403D58F
:1011E0002188082211432180010703D5218810227C
:1011F00011432180410703D52188202211432180FA
:10120000800703D52088402108432080208838BDEE
:1012100010B500F04FFC5D48801D00F051FE5B49A9
:10122000891D0B794A79897900F06EFC574C0120B1
:101230006080FFF7B8FF20805348002180300160B4
:10124000416010BD012070470120704701207047A8
:10125000012070470120704770B54D4800F030FE06
:101260004B4D0002E978000A090608434749891DE9
:1012700000F037FE454C2879A41D20716879607113
:10128000A879A07100F030FC00F014FC204600F0BA
:1012900017FE23796279A17900F036FC012070BD38
:1012A0003A4810B5801D00F00BFE3949020A08705B
:1012B0004A70020C8A70000EC8703448801D027992
:1012C0000A7142794A7180798871012010BD01202C
:1012D00070470120704708B5684600F0A8FC2A480E
:1012E00069468C3800F060FC021E05DD264983202B
:1012F0008C39FFF738FE08BD24490120488008BD1D
:10130000214808B5803001780079081A4006400E5F
:101310008021081A402803D81C490120888008BD74
:10132000194903204C39FFF783FD009016486946A0
:101330004C38FFF718FF08BD14498888002807D0EB
:101340001148803005C8824202D100208880D7E74A
:1013500070470D4810B5A1210C3801702021417053
:1013600000218170C1700171417102228271C171CD
:1013700006490A2209880172090A41720146812040
:10138000FFF7F1FD10BD0000D8010010380000107B
:101390006C00001010B52248C078012804D0022843
:1013A0000AD0032806D107E000F0A0FC1D481E4922
:1013B00000780870012010BD002010BD10B518483D
:1013C000C07801280CD0022802D0032806D107E0FB
:1013D000154816490078087000F099FC012010BDEE
:1013E000002010BD0E4812498078085C0E49087034
:1013F000012070470A480E4AC178807811540120B4
:1014000070470B480849401E00780870012070475B
:10141000034807498078491E087001207047000082
:1014200024000010600000106C000010620000102A
:101430004600001010B50446FFF756FC200605D5FF
:101440002107090F01200004884001E00120A0408D
:10145000FA490A681043086010BD10B5F848002426
:101460000460F849204600F03CFDF7480470012074
:1014700010BDF6490020087001207047F8B5F24D04
:10148000EC68402C00D94024A868012102194903C6
:101490008A4202D90C1A04212970ED492246091802
:1014A0008220FFF760FDA8680019A860E868061BA5
:1014B000E448EE600830074600F002FD001B3946A4
:1014C00000F00FFD002E06D02878022802D0DD495A
:1014D00000200873F8BD03202870F8E710B5D9493B
:1014E000DC4800F0FEFC0D22D6498220FFF73BFDD0
:1014F000D5490520087010BDF8B5D34D6978A868A6
:101500004218012149038A4206D9081A6870052049
:1015100028700220FFF78EFFCA4A00205F3ACC4BAA
:101520006C78A96803E0165C0F18DE55401CA042D9
:10153000F9D30819A860E868061BC248EE600830B5
:10154000074600F0BDFC001B394600F0CAFC002E27
:1015500002D02878052804D1BA4900200873FFF783
:10156000BDFFF8BDF8B5B84D6978A86842180121EB
:1015700049038A4206D9081A68700520287002209B
:10158000FFF758FFAF4A0020B14B5F3A6C78A9686B
:1015900008E00E189E5D175CBE4202D00020686015
:1015A00002E0401CA042F4D30819A860E868061BBA
:1015B000A448EE600830074600F082FC001B394664
:1015C00000F08FFC002E02D02878052807D168682B
:1015D000002805D000209B490873FFF77FFFF8BD66
:1015E0000120F8E7F8B597480E3800F069FC954CF3
:1015F00000BA010A1F3C207D09020143924D4802B6
:10160000A860E07B2F280AD004DC282807D02A28ED
:1016100014D104E0A82808D0AA280FD105E0E07D65
:10162000A17D0002084341BA08E086480A3800F06C
:1016300047FC00BA010A207E0902014381484E029C
:101640001738EE6000F03CFC01257E4F002809D0E1
:10165000B0420CD0207B000601D5822000E00220A1
:10166000FFF7E8FE3D73FFF739FF0020F8BD0120CA
:10167000F8BD70B57348173800F022FC0225714C94
:10168000002807D020461F38007B000607D4022020
:10169000FFF7D0FE2573FFF721FF002070BD01206A
:1016A00070BD70B56748173800F00AFC664C617869
:1016B000884202D86070032000E004202070614955
:1016C00062785F398220FFF74EFC5E48083005469D
:1016D00000F0F6FB6178401A294600F002FC5949F7
:1016E0000020087370BD574810B5173800F0E8FBAC
:1016F000002809D053481F38007B000601D58220FE
:1017000000E00220FFF796FE4E4900200873FFF725
:10171000E5FE10BD10B5FFF7ACFF00281ED049480C
:1017200070215F3801700021417002228270C17007
:101730000171417181710A22C2710172417281721B
:10174000C17230220273012242738173C17301742A
:1017500041743D4912204870FFF7A3FF10BD10B53A
:10176000FFF787FF00283ED0364800225F3802701E
:101770008023437082700121C17020210171437167
:101780008271C2714B220272652242726924847294
:101790006C22C272017341738173C1734C22027453
:1017A00050224274432282743122C274027555233E
:1017B000437578238375C375017644234376847615
:1017C0007323C3766B23037741778177C17720300A
:1017D00002702E22427030228270C1701A49242079
:1017E0004870FFF75EFF10BD10B5FFF742FF0028FD
:1017F0000CD0144803215F380170002141708170C2
:10180000C170114904204870FFF74BFF10BD10B59F
:10181000FFF72FFF002810D00A4800215F38017021
:10182000062242708170C170017141718171C17174
:10183000054908204870FFF734FF10BD1000001064
:1018400014000010BF0A0010480000106C000010C7
:10185000600200105553425310B5FFF70AFF0028ED
:10186000EBD0904800210170417081700F22C2704E
:101870000171417102228271C1718B490820487047
:10188000FFF70FFFD9E710B5FFF7F3FE0028D4D01C
:10189000844800210170417081700822C27001717A
:1018A000417181711022C2710222027241728272F0
:1018B000C1727D490C204870FFF7F3FEBDE7F8B513
:1018C000794E784D002170784035764A02E0535CBD
:1018D0006B54491C8142FAD31F2873D171484030A0
:1018E00000F0EEFA714988426CD1281D00F0E8FA48
:1018F0006C4C5F34211D00F0F4FA2046173800F0DC
:10190000DFFA2146083100F0ECFA687B002804D1A8
:10191000A97B002901D0102901D9012026E0E87B0C
:1019200023283ED012DC1528F7D00ADC00282FD05F
:10193000032830D00428F0D01228EED1FFF70FFF93
:10194000F8BD1A28E9D1FFF74FFFF8BD0227552847
:10195000E3D00DDC252827D0282828D02A280DD030
:101960002F28DAD1287C800734D4002020732EE081
:101970005A2813D0A8281AD0AA28CED1FFF732FEB1
:101980000028E2D0287B00062FD401203070F8BD5B
:10199000FFF7A9FEF8BDFFF7BDFEF8BDFFF737FF63
:1019A000F8BDFFF770FFF8BDFFF756FFF8BDFFF772
:1019B00019FE0028FAD0287B000604D53770FFF7FF
:1019C0005DFDF8BD13E00220FFF734FD2773FFF73C
:1019D00085FDF6E7FFF706FE0028F2D0287B00061B
:1019E00003D4012030707060EBE78220ECE78220A6
:1019F000FFF720FD2E4C0121206889040843206058
:101A00000220FFF717FD206804210843206006200C
:101A1000BCE710B524490878022808D0032810D064
:101A2000042811D0052801D10020087005E71D48C1
:101A30004030C07B282801D0A828F7D1FFF71EFD31
:101A4000FBE6FFF74BFDF8E68220FFF7F3FCF8E733
:101A500010B514490220FFF7EBF9134948700878D4
:101A600000280DD001280ED0052808D00220FFF74D
:101A7000E1FC0C4902205F310873FFF72FFDDCE623
:101A8000FFF71DFFD9E607484030C07B2A2803D066
:101A90002F2804D0AA28F2D1FFF72EFDCDE6FFF7BC
:101AA00061FDCAE6600A0010480000105553424329
:101AB000140000100121864A48051060854882689C
:101AC000D208D200826082680A438260C268D2086B
:101AD000D200C260C2680A43C2607F4802680B033A
:101AE0001A430260816170477A488168C908C90059
:101AF0008160C168C908C900C16078490020486098
:101B00008801734908607047FFB581B005293BD053
:101B100006293BD007293BD00325012B3AD0022BC5
:101B200038D00026012A37D0022A37D0032A37D0EE
:101B3000042A37D000246A480027076047608830AD
:101B400007604760644881696648006800F0D1F921
:101B50000009019900F0CDF960498F6225433543B2
:101B600080222A43CA600860000A4860CD600320D2
:101B70004860072088605C4901204860544940055E
:101B80008039086005B0F0BD0025C6E70125C4E72F
:101B90000225C2E70426C5E70824CCE71824CAE7D3
:101BA0002824C8E73824C6E770B54D4A03460868BC
:101BB000883215460446803D0BE016685168B142F4
:101BC000FDD0491C5160491E4906490E695C1970D7
:101BD0005B1C401EF1D2204670BD70B5404D0246E0
:101BE0000868803D294680310C684B680646A34250
:101BF000FDD109E00C7813786406640E2B550B6850
:101C0000401E5B1C521C0B600028F3D13648426812
:101C1000002A0AD0002242604868401C4860401EEA
:101C20004006400E2D49285C0860304670BD2C4AA5
:101C30008832117812798B1A491C5B0652064906C4
:101C40005B0E520E490E8A4201D1012100E00021B3
:101C50000B430360704724490A88028000200880F3
:101C6000704718B51D4988680090400703D4009854
:101C70000007800F0FD01A4B0833184680304A698E
:101C8000D20708D00A6804786406640E1A55026800
:101C9000521C0260F3E70098134B800712D51048DE
:101CA00004784268A41A64060AD0521C4260521E8C
:101CB00050060B4A400E803A105C0860002000E09D
:101CC0000120586048691E210840188018BD000096
:101CD00080E100E0404004408080044000800040FB
:101CE0004C0B001000000010580000104E4800215E
:101CF00001704E490A68D20301D4012202700968BA
:101D0000890303D4017802221143017070474748C8
:101D10004168FF22D204914341604168424A92786F
:101D2000D20411434160704710B541480078002843
:101D300010D08420FFF7D2F900280BD0FFF7D6FF90
:101D400039494A780878824204D0487001228420B8
:101D5000FFF709F910BD10B5FFF75AFA10BD38B5F5
:101D60006846FFF764FF009800280EDD314C20889C
:101D700000280AD069463048FFF716FF02460020C7
:101D800020802D498320FFF7EEF838BD0EB502A85C
:101D9000FFF7FFF9029800280EDD202800DD202043
:101DA0000090254869464030FFF7C8F90190224865
:101DB00001A94030FFF711FF0EBD10B5FFF7F3F991
:101DC00019498A88824202D08880FFF7C2FA10BD82
:101DD000FEF7C8F919484268FF21C9040A43426066
:101DE000174A53680B43536001680322120491435E
:101DF000016000201349144A0123DB020C5C1454D7
:101E0000401C9842FAD3FFF703FAFEF7C2FE012006
:101E1000FEF7C9FEFFF788FFFFF7A1FFFFF7CDFF31
:101E2000FFF7B4FFF6E7000060000010002100504B
:101E3000050000103A000010DC0B001000200050DC
:101E400080220050D02000006002001010B5FEF784
:101E500083FA10BD10B5FFF76FFA10BD10B5032857
:101E600008D1FFF7A0F914490A88824202D00880FD
:101E7000FFF76FFA10BD10B5022804D0032801D176
:101E8000FFF7C7FD10BDFFF7E3FD10BD10B5022839
:101E900004D0032801D1FFF71EFA10BDFFF730FA76
:101EA00010BD10B5022805D104490420FEF7C0FF7B
:101EB000FFF72DFF10BD000066000010620000104B
:101EC0000378C2781946437812061B0219438378B7
:101ED000C0781B04194311430902090A000608438C
:101EE0007047020A08704A70020C8A70020ECA70AB
:101EF0007047002203098B422CD3030A8B4211D373
:101F000000239C464EE003460B433CD4002243088A
:101F10008B4231D303098B421CD3030A8B4201D37A
:101F200094463FE0C3098B4201D3CB01C01A524112
:101F300083098B4201D38B01C01A524143098B4262
:101F400001D34B01C01A524103098B4201D30B014B
:101F5000C01A5241C3088B4201D3CB00C01A524170
:101F600083088B4201D38B00C01A524143088B4235
:101F700001D34B00C01A5241411A00D201465241CE
:101F8000104670475DE0CA0F00D04942031000D3ED
:101F90004042534000229C4603098B422DD3030A42
:101FA0008B4212D3FC22890112BA030A8B420CD352
:101FB000890192118B4208D3890192118B4204D37B
:101FC00089013AD0921100E08909C3098B4201D3FB
:101FD000CB01C01A524183098B4201D38B01C01A35
:101FE000524143098B4201D34B01C01A52410309AC
:101FF0008B4201D30B01C01A5241C3088B4201D35B
:10200000CB00C01A524183088B4201D38B00C01A07
:102010005241D9D243088B4201D34B00C01A5241DE
:10202000411A00D20146634652415B10104601D36B
:102030004042002B00D54942704763465B1000D3F5
:10204000404201B50020C046C04602BD70477047FF
:102050007047754600F024F8AE46050069465346C1
:10206000C008C000854618B020B5FEF765F960BC11
:1020700000274908B6460026C0C5C0C5C0C5C0C5B2
:10208000C0C5C0C5C0C5C0C5403D49008D467047EC
:1020900010B50446C046C0462046FEF75CF810BDA9
:1020A000004870473C0C001001491820ABBEFEE709
:1020B00026000200704730B47446641E2578641C04
:1020C000AB4200D21D46635D5B00E31830BC18478D
:1020D000EB3C904D53444F53352E3000020101002C
:1020E0000110001000F801000100010000000000D4
:1020F00000000000000029741902274C50433131C0
:10210000787820555342464154313220202033C93B
:102110008ED1BCF07B8ED9B800208EC0FCBD007C77
:10212000384E247D248BC199E83C01721C83EB3A24
:1021300066A11C7C26663B07268A57FC750680CA6A
:102140000288560280C31073EB33C98A461098F791
:10215000661603461C13561E03460E13D18B7611CA
:10216000608946FC8956FEB82000F7E68B5E0B03BB
:10217000C348F7F30146FC114EFE61BF0000E8E6DC
:1021800000723926382D741760B10BBEA17DF3A6FD
:102190006174324E740983C7203BFB72E6EBDCA00E
:1021A000FB7DB47D8BF0AC9840740C487413B40E76
:1021B000BB0700CD10EBEFA0FD7DEBE6A0FC7DEBB7
:1021C000E1CD16CD19268B551A52B001BB0000E89F
:1021D0003B0072E85B8A5624BE0B7C8BFCC746F042
:1021E0003D7DC746F4297D8CD9894EF2894EF6C6CD
:1021F00006967DCBEA030000200FB6C8668B46F832
:102200006603461C668BD066C1EA10EB5E0FB6C84B
:102210004A4A8A460D32E4F7E20346FC1356FEEBC7
:102220004A525006536A016A10918B4618969233AF
:10223000D2F7F691F7F64287CAF7761A8AF28AE859
:10224000C0CC020ACCB80102807E020E7504B442F2
:102250008BF48A5624CD136161720B4075014203E1
:102260005E0B497506F8C341BB000060666A00EB6F
:10227000B04E544C44522020202020200D0A52659C
:102280006D6F7665206469736B73206F72206F7455
:10229000686572206D656469612EFF0D0A4469737B
:1022A0006B206572726F72FF0D0A50726573732036
:1022B000616E79206B657920746F2072657374612B
:1022C00072740D0A00000000000000ACCBD855AAC3
:1022D000F8FFFFFFFFFFFF0F0000000000000000FD
:1022E00000000000000000000000000000000000EE
:1022F00000000000000000000000000000000000DE
:1023000000000000000000000000000000000000CD
:1023100000000000000000000000000000000000BD
:1023200000000000000000000000000000000000AD
:10233000000000000000000000000000000000009D
:10234000000000000000000000000000000000008D
:10235000000000000000000000000000000000007D
:10236000000000000000000000000000000000006D
:10237000000000000000000000000000000000005D
:10238000000000000000000000000000000000004D
:10239000000000000000000000000000000000003D
:1023A000000000000000000000000000000000002D
:1023B000000000000000000000000000000000001D
:1023C000000000000000000000000000000000000D
:1023D00000000000000000000000000000000000FD
:1023E00000000000000000000000000000000000ED
:1023F00000000000000000000000000000000000DD
:1024000000000000000000000000000000000000CC
:1024100000000000000000000000000000000000BC
:1024200000000000000000000000000000000000AC
:10243000000000000000000000000000000000009C
:10244000000000000000000000000000000000008C
:10245000000000000000000000000000000000007C
:10246000000000000000000000000000000000006C
:10247000000000000000000000000000000000005C
:10248000000000000000000000000000000000004C
:10249000000000000000000000000000000000003C
:1024A000000000000000000000000000000000002C
:1024B000000000000000000000000000000000001C
:1024C000000000000000000000000000000000000C
:1024D0004C50433131787820555342280000000099
:1024E00000000000000000000000000000000000EC
:1024F000524541444D4520205458542100000000CD
:102500002100BB320000DC83BB3202005D00000012
:1025100000000000000000000000000000000000BB
:1025200000000000000000000000000000000000AB
:10253000000000000000000000000000000000009B
:10254000000000000000000000000000000000008B
:10255000000000000000000000000000000000007B
:10256000000000000000000000000000000000006B
:10257000000000000000000000000000000000005B
:10258000000000000000000000000000000000004B
:10259000000000000000000000000000000000003B
:1025A000000000000000000000000000000000002B
:1025B000000000000000000000000000000000001B
:1025C000000000000000000000000000000000000B
:1025D00000000000000000000000000000000000FB
:1025E00000000000000000000000000000000000EB
:1025F00000000000000000000000000000000000DB
:1026000000000000000000000000000000000000CA
:1026100000000000000000000000000000000000BA
:1026200000000000000000000000000000000000AA
:10263000000000000000000000000000000000009A
:10264000000000000000000000000000000000008A
:10265000000000000000000000000000000000007A
:10266000000000000000000000000000000000006A
:10267000000000000000000000000000000000005A
:10268000000000000000000000000000000000004A
:10269000000000000000000000000000000000003A
:1026A000000000000000000000000000000000002A
:1026B000000000000000000000000000000000001A
:1026C000000000000000000000000000000000000A
:1026D00054686973206973206120555342204D6509
:1026E0006D6F7279204465766963652064656D6FEE
:1026F0006E7374726174696F6E20666F720D0A7406
:102700006865204B65696C204D4342313030302084
:10271000426F61726420776974682061204E58505E
:10272000204C5043313178782E0D0A000000000013
:102730000000000000000000000000000000000099
:102740000000000000000000000000000000000089
:102750000000000000000000000000000000000079
:102760000000000000000000000000000000000069
:1030D0001F0800005D1E0000771E00008D1E00000E
:1030E000A31E00000600FF0901A10105091901291D
:1030F0000215002501950275018102950175068171
:10310000010508094B15002501950875019102C0BC
:103110002C00000012010002EF020140C91F0B3019
:1031200000010102030109028200040100C032090A
:103130000400000203000004092100010001222C08
:103140000007058403040020070504030400200889
:103150000B0102020200060904010001020200063E
:1031600005240010010524010102042402020524A3
:103170000601020705810310001009040200020A7B
:103180000000070705030240000007058302400016
:1031900000090403000208065005070582024000EA
:1031A0000007050202400000000403090426034E44
:1031B00000580050002000530065006D0069006356
:1031C000006F006E0064007500630074006F007291
:1031D0000073002C034C00500043003100310055B7
:1031E0000078007800200055005300420020004382
:1031F000006F006D0070006F007300690074001AAA
:1032000003440045004D004F0030003000300030D6
:103210000030003000300030001A034C00500043F2
:103220000031003100550078007800200048004946
:1032300000440020034C0050004300310031005591
:10324000007800780020004D0065006D006F00726E
:10325000007900120343004F004D002F004400414D
:1032600000540041001C034C005000430031003169
:10327000005500780078002000560043004F004DB4
:10328000000A06000200000040000000AC3200000E
:10329000000000106C000000040100001833000062
:1032A0006C000010340E000020010000006CDC02F5
:1032B000000000000000000000000000000000000E
:1032C00000000000000000000000000000000000FE
:1032D00000000000000000000000000000000000EE
:1032E0000000000000000100000080250000000038
:1032F00008000000000000000000000000000000C6
:1033000000000000000000000000000000000000BD
:0833100000000000263100005E
:04000005000000C136
:00000001FF
