:020000040000FA
:1000000068020010650100006D0100006F01000032
:1000100000000000000000000000000000000000E0
:10002000000000000000000000000000710100005E
:1000300000000000000000007301000075010000D6
:1000400079010000790100007901000079010000C8
:1000500079010000790100007901000079010000B8
:1000600079010000790100007701000077010000AC
:10007000770100007701000079010000790100009C
:100080007901000079010000790100007901000088
:100090007901000079010000790100007901000078
:1000A0007901000079010000790100007901000068
:1000B000770100007701000079010000790100005C
:1000C00000F002F800F03EF80CA030C80838241800
:1000D0002D18A246671EAB4654465D46AC4201D180
:1000E00000F030F87E460F3E0FCCB6460126334274
:1000F00000D0FB1AA246AB4633431847A0100000BD
:10010000C0100000103A02D378C878C1FAD852075C
:1001100001D330C830C101D504680C6070470000BD
:100120000023002400250026103A01D378C1FBD813
:10013000520700D330C100D50B6070471FB51FBDFB
:1001400010B510BD00F04DF81146FFF7F7FF00F0B5
:100150008FFF00F065F803B4FFF7F2FF03BC00F077
:100160006BF800000848804708480047FEE7FEE7B4
:10017000FEE7FEE7FEE7FEE7FEE70000044805496C
:10018000034A054B70470000510A0000C1000000FF
:1001900068000010680200106800001001E004C050
:1001A000091F0429FBD28B0701D50280801CC907D7
:1001B00000D00270704700290BD0C30702D0027034
:1001C000401C491E022904D3830702D50280801CEB
:1001D000891EE3E70022EEE70022DFE77047704761
:1001E0007047754600F024F8AE4605006946534650
:1001F000C008C000854618B020B5FFF7BFFF60BC3F
:1002000000274908B6460026C0C5C0C5C0C5C0C540
:10021000C0C5C0C5C0C5C0C5403D49008D4670477A
:1002200010B50446C046C0462046FFF794FF10BDF7
:10023000004870470400001001491820ABBEFEE7DB
:100240002600020070470000F8B506460C46154629
:10025000002700F04FFE304600F0C8FD00F044FAE1
:100260000746002F03D00FA000F080F9F8BD6D1EE7
:1002700006E000F023FD2070641C002000F082F9ED
:1002800028466D1E0028F4D100F018FD2070641C73
:10029000002000F077F900F097FE0CA000F066F95E
:1002A00000BFE3E7414453313130302061636B20BC
:1002B0007265616420776F72642061646472657333
:1002C00073206661696C0D0A0000000041445331DF
:1002D0003130302072656164206F6B0D0A000000C0
:1002E00001B50121684600F06FFC08BD10B500F0B3
:1002F00015FC10BD0000000000000000FFFFFFFF24
:10030000002203098B422CD3030A8B4211D3002312
:100310009C464EE003460B433CD4002243088B42EC
:1003200031D303098B421CD3030A8B4201D3944679
:100330003FE0C3098B4201D3CB01C01A524183096C
:100340008B4201D38B01C01A524143098B4201D326
:100350004B01C01A524103098B4201D30B01C01A51
:100360005241C3088B4201D3CB00C01A52418308CB
:100370008B4201D38B00C01A524143088B4201D3F8
:100380004B00C01A5241411A00D201465241104658
:1003900070475DE0CA0F00D04942031000D34042CD
:1003A000534000229C4603098B422DD3030A8B4203
:1003B00012D3FC22890112BA030A8B420CD38901A1
:1003C00092118B4208D3890192118B4204D3890187
:1003D0003AD0921100E08909C3098B4201D3CB01C5
:1003E000C01A524183098B4201D38B01C01A52417A
:1003F00043098B4201D34B01C01A524103098B427E
:1004000001D30B01C01A5241C3088B4201D3CB0068
:10041000C01A524183088B4201D38B00C01A52414B
:10042000D9D243088B4201D34B00C01A5241411A22
:1004300000D20146634652415B10104601D3404250
:10044000002B00D54942704763465B1000D3404201
:1004500001B50020C046C04602BD0000F8B5074601
:100460000C461546002600F045FD384600F0BEFC5F
:1004700000F03AF90646002E03D010A000F076F8FE
:10048000F8BD17A000F072F80CE02078641C00F0B2
:10049000ADFC00F029F90646002E03D015A000F0AF
:1004A00065F8EDE728466D1E0028EED100F08CFDC2
:1004B00019A000F05BF800BFE2E7000041445331AF
:1004C0003130302061636B20776F72642061646427
:1004D00072657373206661696C65640D0A000000C3
:1004E00041445331313030206973206F6E6C696E36
:1004F000650D0A00414453313130302061636B2077
:1005000073656E642064617461206973206661693B
:100510006C65640D0A0000004144533131303020D5
:100520007772697465206F6B0D0A000070B505461F
:100530000DA000F01BF82806040F092C02DD21464F
:10054000373101E021463031C8B2FFF7C9FE2C0730
:10055000240F092C02DD2146373101E021463031DC
:10056000C8B2FFF7BDFE70BD3078000010B504467C
:1005700003E02078641CFFF7B3FE20780028F8D150
:1005800010BD000010B50446194800680121090398
:10059000084317490860002C07D01648006801215D
:1005A000090308431349086008E0124880300068D6
:1005B0000121090308430F4980310860012000F040
:1005C00037F80C480068012189030843094908608D
:1005D000012000F02DF807488030006801218903D0
:1005E0000843044980310860022000F021F810BD62
:1005F000002000500022005038B504460020009032
:1006000009490A480068FFF77BFE054609E000201B
:10061000009002E00098401C00900098A842F9D396
:10062000641E002CF3D138BD808D5B0000000010EB
:1006300038B504460020009009490A480068FFF7D1
:100640005FFE054609E00020009002E00098401C93
:1006500000900098A842F9D3641E002CF3D138BD55
:10066000808D5B000000001070B5002500241B4841
:100670000068012109038843184908601848006888
:100680000121090308431649086008460068012152
:1006900089030843124908601420FFF7ADFF07E003
:1006A000641CFA2C04D9012500F05AFC284670BDC0
:1006B0000C4800680121090308400028F0D10025FA
:1006C0000748803000688900084305498031086088
:1006D0001420FFF791FF2846E9E7000000200050B2
:1006E000002200500021005070B5002500241B4856
:1006F0000068012109038843184908601848006808
:1007000001210903084316490860084600680121D1
:1007100089030843124908600220FFF789FF07E0B8
:10072000641CFA2C04D9012500F04EFC284670BD4B
:100730000C4800680121090308400028F0D1002579
:100740000748803000688900084305498031086007
:100750000220FFF76DFF2846E9E700000020005067
:100760000022005000210050F8B507460C461646FE
:10077000002500F08BFB402000F0E8FAFFF774FF43
:100780000546002D03D017A0FFF7F0FEF8BD1EA010
:10079000FFF7ECFE384600F0D9FAFFF765FF054693
:1007A000002D03D01DA0FFF7E1FEEFE724A0FFF727
:1007B000DDFE0CE02078641C00F0C8FAFFF754FF5F
:1007C0000546002D03D026A0FFF7D0FEDEE7304619
:1007D000761E0028EED100F0C3FB2AA0FFF7C6FE6C
:1007E00000BFD3E7504341393535352061636B2075
:1007F00064657669636520616464726573732066FD
:1008000061696C65640D0A00504341393535352006
:100810006973206F6E6C696E650D0A005043413933
:100820003535352061636B20776F726420616464B5
:1008300072657373206661696C65640D0A0000005F
:100840005043413935353520776F726420616464D7
:1008500072657373206973206F6B0D0A00000000CE
:10086000504341393535352061636B2073656E64C3
:100870002064617461206973206661696C65640D30
:100880000A000000504341393535352077726974CC
:1008900065206F6B0D0A000010B500245A48406AAD
:1008A000C005000F030000F0DFF910090B0D0F1158
:1008B000131517191B1D1F212325272900241DE0AF
:1008C000524C1BE0524C19E0524C17E0524C15E0D0
:1008D000524C13E0524C11E0524C0FE0524C0DE0E0
:1008E000524C0BE0524C09E0524C07E0524C05E0F0
:1008F000524C03E0524C01E0524C00BF00BF424852
:10090000406AC006800E811C2046FFF7F9FC0446B1
:100910003D484030006B8007800F002806D001283A
:1009200008D0022823D0032863D123E04648474952
:1009300008605EE03448403000688007800F00287F
:1009400006D0012808D002280AD003280DD108E0DB
:100950003D483E49086008E03B483C49086004E0E7
:1009600000BF00203949086000BF00BF41E03748A0
:1009700004603EE02448403000688007800F002873
:1009800006D0012819D002282CD003282FD12AE024
:100990001D488068FF2181310840002803D02A4883
:1009A0002A49086008E018488068C006C00E401C4C
:1009B000254948432549086019E013488068FF210C
:1009C00081310840002803D01F482049086008E012
:1009D0000D488068C006C00E401C1B4948431B4997
:1009E000086004E000BF00201849086000BF00BF95
:1009F00000BF00BF04484030816B14480068FFF717
:100A00007FFC1249086010BD0080044020A107004F
:100A100000350C00E0C81000C05C1500006A18002A
:100A200040771B0080841E00C0912100009F24009D
:100A300040AC2700E032290020402C00604D2F0000
:100A400000D4300040E13300001BB700000000106C
:100A500008B500202F4908622F48806B2021884369
:100A60002D4988630020009003E000BF0098401CDF
:100A700000900098C828F8D301202649403108602A
:100A80004860002048600120486000BF2148403095
:100A90004068C007C00F0028F8D023201D49886097
:100AA0001D48806B802188431B49886300BF19481B
:100AB000C068C007C00F0028F9D003201549403195
:100AC000086301204863002048630120486300BF99
:100AD00010484030406BC007C00F0028F8D00120FC
:100AE0000C49403188630C48806B091508430A495A
:100AF00088630846806B8915084307498863054861
:100B000080300068012109040843024980310860EF
:100B100008BD0000008004400082044010B515208C
:100B200001218140244A116000BF2448006801214E
:100B30000903084321490860012088612048806832
:100B4000C008C0001E49886008468068012108432B
:100B50001B4988600846C068C008C000C8600846D5
:100B6000C068012108431649C8601648C06880085B
:100B700080001449C8600846C06803210843114931
:100B8000C8600846C0683C2188430E49C860E1201F
:100B9000400200F043F800200A49486007208860BE
:100BA000152001218140044A803A116000BF0520D0
:100BB0000449486010BD000080E100E080800440EE
:100BC0004040044000800040F3B50B46009D1946AC
:100BD00000201DE00022D24303E0002A00D106E0FD
:100BE000521E0D4E766920273E40002EF5D000BFE4
:100BF000002A00D10EE0102406E02E78064F3E6059
:100C00006D1C641E491E401C002C01D00029F4D12B
:100C10000029DFD100BFFCBD00800040F8B50446CC
:100C20000E48866931460E480068FFF769FB0709E0
:100C300021463846FFF764FB05460A48C068802114
:100C400008430849C860280A4860E8B208600846B6
:100C5000C068802188430349C860F8BD8080044093
:100C6000000000100080004030B47446641E2578F7
:100C7000641CAB4204D3635D5B00E31830BC1847CF
:100C80001D46F8E738B504460020009009490A4897
:100C90000068FFF735FB054609E00020009002E000
:100CA0000098401C00900098A842F9D3641E002CC4
:100CB000F3D138BD701700000000001070B500249B
:100CC00000251F4800680121090388431C4908606A
:100CD0001C4800680121890308431A490860022062
:100CE000FFF7A6FC00BF27E01748006801210903B1
:100CF0000840002805D00720011B01208840284318
:100D0000C5B20220FFF794FC0E488038006801212C
:100D1000890308430B49803908600220FFF788FCEB
:100D20000848006801218903084306490860022039
:100D3000FFF77EFC601CC4B2082CD5DB284670BDD2
:100D400000200050802200500021005070B5054660
:100D50000024244800680121090308432149086050
:100D6000214800680121890308431F4908601420B5
:100D7000FFF742FC00BF32E00720011B0120884042
:100D80002840002809D0184880380068012109034C
:100D9000084315498039086006E0134800680121BE
:100DA00009030843104908601420FFF725FC0E488A
:100DB000803800680121890308430B4980390860A5
:100DC0001420FFF719FC0848006801218903084333
:100DD000054908601420FFF70FFC601CC4B2082C02
:100DE000CADB70BD002000508022005070B505465F
:100DF00000242448006801210903084321490860B0
:100E0000214800680121890308431F490860022026
:100E1000FFF70EFC00BF32E00720011B01208840D5
:100E20002840002809D018488038006801210903AB
:100E3000084315498039086006E01348006801211D
:100E400009030843104908600120FFF7F1FB0E4831
:100E5000803800680121890308430B498039086004
:100E60000120FFF7E5FB08480068012189030843DA
:100E7000054908600220FFF7DBFB601CC4B2082CA8
:100E8000CADB70BD002000508022005010B517480A
:100E900000680121090308431449086014480068E8
:100EA000012109030843124908600846006801212E
:100EB000890308430E4908600A20FFF79DFB0C4890
:100EC0008030006801210903084309498031086026
:100ED0000A20FFF791FB0648803000680121890352
:100EE000084303498031086010BD00000020005015
:100EF0000022005010B5184800680121090308437A
:100F00001549086015480068012109030843134981
:100F10000860084600680121890308430F490860FA
:100F20000220FFF785FB0D4880300068012109038E
:100F300008430A49803108600220FFF779FB07481F
:100F4000803000680121890308430449803108602A
:100F50000220FFF76DFB10BD002000500022005062
:100F600010B51748006801210903084314490860B7
:100F700014480068012189030843124908600846A3
:100F800000680121090308430E4908600A20FFF7A1
:100F900033FB0C4880380068012189030843094964
:100FA000803908606420FFF727FB06488038006816
:100FB00001210903084303498039086010BD00007E
:100FC000002000508022005010B517480068012111
:100FD0000903084314490860144800680121890383
:100FE00008431249086008460068012109030843C4
:100FF0000E4908601420FFF71BFB0C48803800687E
:101000000121890308430949803908601420FFF74A
:101010000FFB064880380068012109030843034993
:101020008039086010BD0000002000508022005070
:101030000D48006B012108430B4908630846806B8B
:101040000121084308498863084800680121890391
:10105000084306490860084600680121090308435F
:101060000249086000207047004004400020005002
:10107000C4B0FC2105A8FFF7AFF83D480068049014
:10108000002003903BA0006802903949091D03C964
:1010900001910090FFF700FC37480068374908438A
:1010A0003549086036484068C008C0003449486087
:1010B00008464068486033480068012149040843F5
:1010C0003049086030480068090108432E4908602B
:1010D0002B480068C008C00029490860084600681D
:1010E0000860284800680121090408432549086070
:1010F00025488038006801210904084322498039C5
:101100000860FFF7F3F8FFF793FF012203A9062019
:10111000FFF72AFB012204A90220FFF725FB012289
:1011200002A99020FFF79AF9C820FFF7ABFD1DE058
:10113000032269469120FFF787F869460878FFF790
:10114000F5F912A0FFF712FA69464878FFF7EEF9B1
:101150000EA0FFF70BFA69468878FFF7E7F90BA0B6
:10116000FFF704FAFF20F530FFF78CFDE0E7000001
:10117000901100008C0000008080044040000100BD
:101180004040044000200050802200500D0A000022
:10119000DA000000FFFFFF0000000000BC110000AB
:1011A000000000100400000004010000C011000055
:1011B000040000106402000020010000006CDC024A
:04000005000000C136
:00000001FF
